{"abi":[{"type":"constructor","inputs":[{"name":"_swap","type":"address","internalType":"contract SWAP_V3"},{"name":"_dav","type":"address","internalType":"contract DAV_V3"},{"name":"_stateToken","type":"address","internalType":"address"},{"name":"_owner","type":"address","internalType":"address"}],"stateMutability":"nonpayable"},{"type":"function","name":"AIRDROP_PER_DAV","inputs":[],"outputs":[{"name":"","type":"uint256","internalType":"uint256"}],"stateMutability":"view"},{"type":"function","name":"airdropAmountByDayIndex","inputs":[{"name":"","type":"uint256","internalType":"uint256"}],"outputs":[{"name":"","type":"uint256","internalType":"uint256"}],"stateMutability":"view"},{"type":"function","name":"airdropAmountByTokenDayIndex","inputs":[{"name":"","type":"address","internalType":"address"},{"name":"","type":"uint256","internalType":"uint256"}],"outputs":[{"name":"","type":"uint256","internalType":"uint256"}],"stateMutability":"view"},{"type":"function","name":"airdropUnitsByDayIndex","inputs":[{"name":"","type":"uint256","internalType":"uint256"}],"outputs":[{"name":"","type":"uint256","internalType":"uint256"}],"stateMutability":"view"},{"type":"function","name":"airdropUnitsByTokenDayIndex","inputs":[{"name":"","type":"address","internalType":"address"},{"name":"","type":"uint256","internalType":"uint256"}],"outputs":[{"name":"","type":"uint256","internalType":"uint256"}],"stateMutability":"view"},{"type":"function","name":"approveConsumer","inputs":[{"name":"consumer","type":"address","internalType":"address"},{"name":"maxDavUnits","type":"uint256","internalType":"uint256"}],"outputs":[],"stateMutability":"nonpayable"},{"type":"function","name":"claim","inputs":[],"outputs":[],"stateMutability":"nonpayable"},{"type":"function","name":"consumeFromBoost","inputs":[{"name":"token","type":"address","internalType":"address"},{"name":"user","type":"address","internalType":"address"},{"name":"davUnits","type":"uint256","internalType":"uint256"}],"outputs":[],"stateMutability":"nonpayable"},{"type":"function","name":"consumedDavUnits","inputs":[{"name":"","type":"address","internalType":"address"},{"name":"","type":"address","internalType":"address"}],"outputs":[{"name":"","type":"uint256","internalType":"uint256"}],"stateMutability":"view"},{"type":"function","name":"consumedDavUnitsByCycle","inputs":[{"name":"","type":"address","internalType":"address"},{"name":"","type":"address","internalType":"address"},{"name":"","type":"uint256","internalType":"uint256"}],"outputs":[{"name":"","type":"uint256","internalType":"uint256"}],"stateMutability":"view"},{"type":"function","name":"consumerAllowances","inputs":[{"name":"","type":"address","internalType":"address"},{"name":"","type":"address","internalType":"address"}],"outputs":[{"name":"","type":"uint256","internalType":"uint256"}],"stateMutability":"view"},{"type":"function","name":"dav","inputs":[],"outputs":[{"name":"","type":"address","internalType":"contract DAV_V3"}],"stateMutability":"view"},{"type":"function","name":"emergencyRemoveConsumer","inputs":[{"name":"consumer","type":"address","internalType":"address"}],"outputs":[],"stateMutability":"nonpayable"},{"type":"function","name":"getAirdropStatsForDay","inputs":[{"name":"dayIndex","type":"uint256","internalType":"uint256"}],"outputs":[{"name":"amount","type":"uint256","internalType":"uint256"},{"name":"units","type":"uint256","internalType":"uint256"}],"stateMutability":"view"},{"type":"function","name":"getAirdropStatsForTokenDay","inputs":[{"name":"token","type":"address","internalType":"address"},{"name":"dayIndex","type":"uint256","internalType":"uint256"}],"outputs":[{"name":"amount","type":"uint256","internalType":"uint256"},{"name":"units","type":"uint256","internalType":"uint256"}],"stateMutability":"view"},{"type":"function","name":"getClaimable","inputs":[{"name":"token","type":"address","internalType":"address"},{"name":"user","type":"address","internalType":"address"}],"outputs":[{"name":"davUnitsAvailable","type":"uint256","internalType":"uint256"},{"name":"newUnits","type":"uint256","internalType":"uint256"},{"name":"amount","type":"uint256","internalType":"uint256"}],"stateMutability":"view"},{"type":"function","name":"getConsumedDavUnitsByCycle","inputs":[{"name":"token","type":"address","internalType":"address"},{"name":"user","type":"address","internalType":"address"},{"name":"cycle","type":"uint256","internalType":"uint256"}],"outputs":[{"name":"","type":"uint256","internalType":"uint256"}],"stateMutability":"view"},{"type":"function","name":"getConsumedDavUnitsCurrentCycle","inputs":[{"name":"token","type":"address","internalType":"address"},{"name":"user","type":"address","internalType":"address"}],"outputs":[{"name":"","type":"uint256","internalType":"uint256"}],"stateMutability":"view"},{"type":"function","name":"isConsumer","inputs":[{"name":"","type":"address","internalType":"address"}],"outputs":[{"name":"","type":"bool","internalType":"bool"}],"stateMutability":"view"},{"type":"function","name":"owner","inputs":[],"outputs":[{"name":"","type":"address","internalType":"address"}],"stateMutability":"view"},{"type":"function","name":"pause","inputs":[],"outputs":[],"stateMutability":"nonpayable"},{"type":"function","name":"paused","inputs":[],"outputs":[{"name":"","type":"bool","internalType":"bool"}],"stateMutability":"view"},{"type":"function","name":"renounceOwnership","inputs":[],"outputs":[],"stateMutability":"nonpayable"},{"type":"function","name":"revokeConsumer","inputs":[{"name":"consumer","type":"address","internalType":"address"}],"outputs":[],"stateMutability":"nonpayable"},{"type":"function","name":"setConsumer","inputs":[{"name":"consumer","type":"address","internalType":"address"},{"name":"allowed","type":"bool","internalType":"bool"}],"outputs":[],"stateMutability":"nonpayable"},{"type":"function","name":"stateToken","inputs":[],"outputs":[{"name":"","type":"address","internalType":"address"}],"stateMutability":"view"},{"type":"function","name":"swap","inputs":[],"outputs":[{"name":"","type":"address","internalType":"contract SWAP_V3"}],"stateMutability":"view"},{"type":"function","name":"transferOwnership","inputs":[{"name":"newOwner","type":"address","internalType":"address"}],"outputs":[],"stateMutability":"nonpayable"},{"type":"function","name":"unpause","inputs":[],"outputs":[],"stateMutability":"nonpayable"},{"type":"event","name":"Airdropped","inputs":[{"name":"user","type":"address","indexed":true,"internalType":"address"},{"name":"token","type":"address","indexed":true,"internalType":"address"},{"name":"davUnitsConsumed","type":"uint256","indexed":false,"internalType":"uint256"},{"name":"amount","type":"uint256","indexed":false,"internalType":"uint256"}],"anonymous":false},{"type":"event","name":"BoostConsumed","inputs":[{"name":"consumer","type":"address","indexed":true,"internalType":"address"},{"name":"user","type":"address","indexed":true,"internalType":"address"},{"name":"token","type":"address","indexed":true,"internalType":"address"},{"name":"davUnits","type":"uint256","indexed":false,"internalType":"uint256"}],"anonymous":false},{"type":"event","name":"ConsumerApproved","inputs":[{"name":"user","type":"address","indexed":true,"internalType":"address"},{"name":"consumer","type":"address","indexed":true,"internalType":"address"},{"name":"maxDavUnits","type":"uint256","indexed":false,"internalType":"uint256"}],"anonymous":false},{"type":"event","name":"ConsumerEmergencyRemoved","inputs":[{"name":"consumer","type":"address","indexed":true,"internalType":"address"},{"name":"at","type":"uint256","indexed":false,"internalType":"uint256"}],"anonymous":false},{"type":"event","name":"ConsumerSet","inputs":[{"name":"consumer","type":"address","indexed":true,"internalType":"address"},{"name":"allowed","type":"bool","indexed":false,"internalType":"bool"}],"anonymous":false},{"type":"event","name":"OwnershipTransferred","inputs":[{"name":"previousOwner","type":"address","indexed":true,"internalType":"address"},{"name":"newOwner","type":"address","indexed":true,"internalType":"address"}],"anonymous":false},{"type":"error","name":"OwnableInvalidOwner","inputs":[{"name":"owner","type":"address","internalType":"address"}]},{"type":"error","name":"OwnableUnauthorizedAccount","inputs":[{"name":"account","type":"address","internalType":"address"}]},{"type":"error","name":"ReentrancyGuardReentrantCall","inputs":[]},{"type":"error","name":"SafeERC20FailedOperation","inputs":[{"name":"token","type":"address","internalType":"address"}]}],"bytecode":{"object":"0x60e0346200019857601f62001f5438819003918201601f19168301916001600160401b038311848410176200019d57808492608094604052833981010312620001985780516001600160a01b03808216929091838103620001985760208201519083821680830362000198576200008760606200007f60408701620001b3565b9501620001b3565b9533156200017f576200009a33620001c8565b600180551515908162000174575b508062000168575b15620001385760805260a05260c052339082160362000126575b604051611d4490816200021082396080518181816105630152818161069d015281816107b7015281816111e60152611a22015260a0518181816108bc015281816112c1015281816116b20152611ad7015260c051816117660152f35b6200013190620001c8565b38620000ca565b60405162461bcd60e51b81526020600482015260086024820152673130b21030b2323960c11b6044820152606490fd5b508383161515620000b0565b9050151538620000a8565b604051631e4fbdf760e01b815260006004820152602490fd5b600080fd5b634e487b7160e01b600052604160045260246000fd5b51906001600160a01b03821682036200019857565b600080546001600160a01b039283166001600160a01b03198216811783559216907f8be0079c531659141344cd1fd0a4f28419497f9722a3daafe3b4186f6b6457e09080a356fe6040608081526004908136101561001557600080fd5b600091823560e01c806302c9ef451461179557806313f9afb3146117515780631c6c792e146117085780631e69d540146116e1578063266959d51461169d5780633f4ba83a146116775780633fabcc76146116365780633fb81428146115f6578063407bd89c146115d157806342e92961146111875780634e71d92d1461077f5780635c975abb1461075b578063680a301114610492578063715018a6146107015780637a363e0c146106cc5780638119c06514610688578063834ff7391461064c5780638456cb59146106235780638da5cb5b146105fb5780638e508b45146105145780639a7f2b89146104d3578063a16e9acb14610492578063ab1e2182146103a0578063ce74da4f14610335578063d821ad4b146102cc578063dadbce75146102a5578063e2d72bf914610245578063e93eaa38146101f35763f2fde38b1461016057600080fd5b346101ef5760203660031901126101ef57610179611814565b90610182611875565b6001600160a01b039182169283156101d9575050600054826bffffffffffffffffffffffff60a01b821617600055167f8be0079c531659141344cd1fd0a4f28419497f9722a3daafe3b4186f6b6457e0600080a380f35b51631e4fbdf760e01b8152908101849052602490fd5b8280fd5b505034610241578060031936011261024157602091610210611814565b8261021961182a565b6001600160a01b03928316845260038652922091166000908152908352819020549051908152f35b5080fd5b8284346102a257816003193601126102a25781610260611814565b6001600160a01b031680835260086020908152828420602435808652908252838520549285526009825283852090855281529190922054835192835290820152f35b80fd5b50346101ef5760203660031901126101ef5760209282913581526007845220549051908152f35b5090346101ef5760203660031901126101ef5760207f0bc619d3c1cf0a3a9afe2a465364e8a644f46c7b40ab32fdb444822f78994ae09161030b611814565b610313611875565b6001600160a01b0316808652938252808520805460ff1916905551428152a280f35b50503461024157602036600319011261024157610350611814565b9033835260056020528083209160018060a01b03169182600052602052828160002055518281527f9ae9cca64827f3b85e8c22da060d065046ae55ab99440f10c6607f94469f4f7a60203392a380f35b5090346101ef57806003193601126101ef576103ba611814565b6001600160a01b03169160243591908315610461578385528060205260ff8286205416156104285750338452600560205280842083600052602052818160002055519081527f9ae9cca64827f3b85e8c22da060d065046ae55ab99440f10c6607f94469f4f7a60203392a380f35b6020606492519162461bcd60e51b835282015260146024820152733737ba1030b63637bbb2b21031b7b739bab6b2b960611b6044820152fd5b6020606492519162461bcd60e51b8352820152600c60248201526b3130b21031b7b739bab6b2b960a11b6044820152fd5b50503461024157806020926104a636611840565b9160018060a01b038091168452600287528484209116600052855282600020908252845220549051908152f35b50503461024157806003193601126102415760209181906001600160a01b036104fa611814565b168152600984528181206024358252845220549051908152f35b5091903461024157806003193601126102415761052f611814565b9161053861182a565b825163ca99911d60e01b81526001600160a01b039485169581018690529460209490919085876024817f000000000000000000000000000000000000000000000000000000000000000085165afa9283156105f15785969785946105ba575b508452600287528484209116600052855282600020908252845220549051908152f35b955092508685813d81116105ea575b6105d381836118a1565b810103126105e5578594519238610597565b600080fd5b503d6105c9565b85513d86823e3d90fd5b505034610241578160031936011261024157905490516001600160a01b039091168152602090f35b83346102a257806003193601126102a25761063c611875565b600160ff19600a541617600a5580f35b50346101ef5760203660031901126101ef5760209260ff918391906001600160a01b03610677611814565b168252855220541690519015158152f35b505034610241578160031936011261024157517f00000000000000000000000000000000000000000000000000000000000000006001600160a01b03168152602090f35b508290346102415760203660031901126102415735815260066020528180822054916007602052205482519182526020820152f35b83346102a257806003193601126102a25761071a611875565b600080546001600160a01b0319811682556001600160a01b03167f8be0079c531659141344cd1fd0a4f28419497f9722a3daafe3b4186f6b6457e08280a380f35b50503461024157816003193601126102415760209060ff600a541690519015158152f35b50829034610241578160031936011261024157600192600284541461117a576002845560ff600a541661114e576001600160a01b03927f0000000000000000000000000000000000000000000000000000000000000000841692833b156102415782516375858e3560e01b8152338282015260249083818381838a5af180156105f157611121575b508351632ab6914b60e21b81529184838281895afa80156105f157849385916110ee575b50806110e3575b156110a25784516375151b6360e01b815292871681840181905296602093848185818b5afa801561106257869061106c575b61086e9150611914565b8551631979a67360e01b8152828101899052848185818b5afa9081156110625791859185938891611020575b506108a490611956565b8751630dd5008760e11b8152338582015292839182907f0000000000000000000000000000000000000000000000000000000000000000165afa8015611016578590610fe1575b670de0b6b3a764000091500495888710610fab57855163ca99911d60e01b81528281018990529484868581855afa958615610f9f578196610f70575b50888152600285528681203360005285528660002086825285528681205480891115610f3b5761095790896119a2565b9769021e19e0c9bab240000096878a02978a8904148a151715610f295788516370a0823160e01b8152858101859052878188818f5afa908115610f1f579089918591610eee575b5010610eac57908692918b8a5194858092636eb1769f60e11b8252888a830152308b83015260449788915afa8015610ea2578a908590610e71575b6109e5925010156119c5565b8b835260028852898320336000528852896000209083528752888220554215610e3c57610e0b576001600160ff1b03428110610dd457612a31600160ff1b034213610da257612a3080420190811260004212908015821691151617610c035760008112610d7057620151809182820483810290808204851490151715610d5c5761d2f0198111610d255761d2f0810190818111610d11578180941015610cbe575b50508111610c8e57612a2f198101908082138d16610c7a5760008212610c495742821115610c175762017baf1901908111610c035704806000526006865287600020610ad3888254611a0a565b9055806000526007865287600020610aec8a8254611a0a565b905589600052600886528760002081600052865287600020610b0f888254611a0a565b905589600052600986528760002090600052855286600020610b32898254611a0a565b9055865190858201926323b872dd60e01b84528583015233908201528560648201526064815260a0810181811067ffffffffffffffff821117610bef57875251849160009190828b5af115610be45760005188903d610bdd575050863b155b610bc9575050825193845283015233917fe94bf5364ee1292cabede8ab439bbac3cc4a725cb08fa81ec1d00a3c87e606e69190a38055005b8451635274afe760e01b8152908101879052fd5b1415610b91565b84513d6000823e3d90fd5b84604185634e487b7160e01b600052526000fd5b85601186634e487b7160e01b600052526000fd5b50885162461bcd60e51b8152808601889052600d818801526c4e6f6e2d66757475726520747360981b81850152606490fd5b50885162461bcd60e51b8152808601889052600c818801526b05554432074696d65203c20360a41b81850152606490fd5b86601187634e487b7160e01b600052526000fd5b885162461bcd60e51b8152808601889052600c818801526b2aaa219031b0b9ba1037bb3360a11b81850152606490fd5b9192509062015180198211610ce1576202247001809111610c7a57908d80610a86565b8a5162461bcd60e51b81528088018a9052600c818a01526b2732bc3a103230bc9037bb3360a11b81870152606490fd5b88601189634e487b7160e01b600052526000fd5b8a5162461bcd60e51b81528088018a90526013818a0152725461726765742063616c63206f76662028682960681b81870152606490fd5b87601188634e487b7160e01b600052526000fd5b885162461bcd60e51b8152808601889052600e818801526d04c6f63616c2074696d65203c20360941b81850152606490fd5b875162461bcd60e51b8152808501879052600e818701526d4c6f63616c206f766572666c6f7760901b81840152606490fd5b875162461bcd60e51b81528085018790526013818701527254696d657374616d7020746f6f206c6172676560681b81840152606490fd5b6d125b9d985b1a59081bd9999cd95d60921b9150600e6064948689519562461bcd60e51b8752860152840152820152fd5b875162461bcd60e51b8152808501879052601181870152700496e76616c69642074696d657374616d7607c1b81840152606490fd5b50508881813d8311610e9b575b610e8881836118a1565b810103126105e557896109e591516109d9565b503d610e7e565b8b513d86823e3d90fd5b885162461bcd60e51b81528086018890526019818801527f496e73756666696369656e7420737761702062616c616e6365000000000000006044820152606490fd5b809250898092503d8311610f18575b610f0781836118a1565b810103126105e5578890518e61099e565b503d610efd565b8a513d86823e3d90fd5b634e487b7160e01b8352601185528583fd5b875162461bcd60e51b81528085018790526010818701526f4e6f206e65772044415620756e69747360801b6044820152606490fd5b9095508481813d8311610f98575b610f8881836118a1565b810103126105e55751948a610927565b503d610f7e565b508651903d90823e3d90fd5b5060126064928487519362461bcd60e51b8552840152820152712732b2b2101f1e98903bb437b632902220ab60711b6044820152fd5b508381813d831161100f575b610ff781836118a1565b810103126105e557670de0b6b3a764000090516108eb565b503d610fed565b86513d87823e3d90fd5b92809294508391503d831161105b575b61103a81836118a1565b810103126110575783916108a461105187936118d9565b9061089a565b8580fd5b503d611030565b87513d88823e3d90fd5b508481813d831161109b575b61108281836118a1565b810103126110575761109661086e916118d9565b610864565b503d611078565b6017606492602087519362461bcd60e51b85528401528201527f4e6f206163746976652061756374696f6e20746f6461790000000000000000006044820152fd5b508683161515610832565b9050611111919350853d871161111a575b61110981836118a1565b8101906118e6565b9290928961082b565b503d6110ff565b67ffffffffffffffff819492941161113c5784529187610807565b50634e487b7160e01b81526041909152fd5b906020606492519162461bcd60e51b835282015260066024820152651c185d5cd95960d21b6044820152fd5b51633ee5aeb560e01b8152fd5b50346101ef5761119636611840565b9192909333865260209180835260ff8288205416156115a2578315611570576001600160a01b0395861680885260058452828820338952845282882054909590916111e3868410156119c5565b877f00000000000000000000000000000000000000000000000000000000000000001690888551936375151b6360e01b85521698898285015260249387818681875afa8015611566578c90611530575b61123d9150611914565b8551632ab6914b60e21b81528b87828581885afa918215611524578184918e939194611502575b50836114f6575b505050156114c0578551631979a67360e01b81528281018b905287818681875afa908c82156114b557918693918a9391611473575b506112aa90611956565b875195868092630dd5008760e11b82528d878301527f0000000000000000000000000000000000000000000000000000000000000000165afa938415611469578b94611436575b508a878b8389518097819363ca99911d60e01b8352888301525afa938415610f9f57818c89928c94976113f6575b50815260028a528181208c82528a528181208682528a522054670de0b6b3a76400009161134b91611a0a565b940484116113bc5750507fa0b139ecccf22964fd16b94ce9b84a6e972cecd7a30160329face2a86f8eef6494939261139f9287928a8c5260028752858c208a8d528752858c20908c528652848b20556119a2565b85885260058352818820338952835281882055519283523392a480f35b855162461bcd60e51b81529182018790526015908201527422bc31b2b2b2399030bb30b4b630b13632902220ab60591b6044820152606490fd5b9650509150508784813d831161142f575b61141181836118a1565b810103126102a257925192889087908c670de0b6b3a764000061131f565b503d611407565b9093508681813d8311611462575b61144e81836118a1565b8101031261145e575192386112f1565b8a80fd5b503d611444565b86513d8d823e3d90fd5b92809294508391503d83116114ae575b61148d81836118a1565b810103126114aa5784916112aa6114a48a936118d9565b906112a0565b8b80fd5b503d611483565b8851903d90823e3d90fd5b855162461bcd60e51b8152808301889052601181860152702737ba103a37b230bc93b9903a37b5b2b760791b6044820152606490fd5b161490508a823861126b565b905061151c919350893d8b1161111a5761110981836118a1565b929038611264565b508751903d90823e3d90fd5b508781813d831161155f575b61154681836118a1565b810103126114aa5761155a61123d916118d9565b611233565b503d61153c565b87513d8e823e3d90fd5b82606492519162461bcd60e51b8352820152600e60248201526d125b9d985b1a5908185b5bdd5b9d60921b6044820152fd5b82606492519162461bcd60e51b8352820152600b60248201526a1b9bdd08185b1b1bddd95960aa1b6044820152fd5b5050346102415781600319360112610241576020905169021e19e0c9bab24000008152f35b505034610241578060031936011261024157606090611624611616611814565b61161e61182a565b90611a17565b91929081519384526020840152820152f35b50503461024157806003193601126102415760209181906001600160a01b0361165d611814565b168152600884528181206024358252845220549051908152f35b83346102a257806003193601126102a257611690611875565b60ff19600a5416600a5580f35b505034610241578160031936011261024157517f00000000000000000000000000000000000000000000000000000000000000006001600160a01b03168152602090f35b50346101ef5760203660031901126101ef5760209282913581526006845220549051908152f35b50503461024157806003193601126102415780602092611726611814565b61172e61182a565b6001600160a01b0391821683526005865283832091168252845220549051908152f35b505034610241578160031936011261024157517f00000000000000000000000000000000000000000000000000000000000000006001600160a01b03168152602090f35b5090346101ef57806003193601126101ef576117af611814565b602435801515809103611810577f8253cfa2cc4a9f5a344dc3f0d0d7a5ff75b0fbcf840f1ad58f1ebff40745d832926020926117e9611875565b6001600160a01b0316808752948352808620805460ff191660ff841617905551908152a280f35b8480fd5b600435906001600160a01b03821682036105e557565b602435906001600160a01b03821682036105e557565b60609060031901126105e5576001600160a01b039060043582811681036105e5579160243590811681036105e5579060443590565b6000546001600160a01b0316330361188957565b60405163118cdaa760e01b8152336004820152602490fd5b90601f8019910116810190811067ffffffffffffffff8211176118c357604052565b634e487b7160e01b600052604160045260246000fd5b519081151582036105e557565b91908260409103126105e55781516001600160a01b03811681036105e55760206119119193016118d9565b90565b1561191b57565b60405162461bcd60e51b8152602060048201526013602482015272151bdad95b881b9bdd081cdd5c1c1bdc9d1959606a1b6044820152606490fd5b1561195d57565b60405162461bcd60e51b815260206004820152601f60248201527f5265766572736520646179206f7220696e6163746976652061756374696f6e006044820152606490fd5b919082039182116119af57565b634e487b7160e01b600052601160045260246000fd5b156119cc57565b60405162461bcd60e51b8152602060048201526016602482015275496e73756666696369656e7420616c6c6f77616e636560501b6044820152606490fd5b919082018092116119af57565b9160018060a01b03807f00000000000000000000000000000000000000000000000000000000000000001693604091808351926375151b6360e01b845216600495818785015260209384816024818c5afa908115611ca057600091611cd9575b5015611bf3578451632ab6914b60e21b8152858189818c5afa908115611ca0578484916000908194611cb7575b5083611cab575b50505080611c3b575b15611bf3578383916024875180948193630dd5008760e11b83521696878c8301527f0000000000000000000000000000000000000000000000000000000000000000165afa8015611be857600090611c06575b670de0b6b3a7640000915004968715611bf3579083602494939286519586809263ca99911d60e01b8252858c8301525afa938415611be857600094611bb9575b5060005260028252836000209060005281528260002091600052526000205480841115611bb057611b7890846119a2565b9269021e19e0c9bab240000092838502938585041485151715611b9b5750929190565b601190634e487b7160e01b6000525260246000fd5b50600091508190565b90938382813d8311611be1575b611bd081836118a1565b810103126102a25750519238611b47565b503d611bc6565b85513d6000823e3d90fd5b5050505050915050600090600090600090565b8482813d8311611c34575b611c1b81836118a1565b810103126102a25750670de0b6b3a76400009051611b07565b503d611c11565b508451631979a67360e01b815287810183905284816024818c5afa908115611ca057600091611c6b575b50611ab4565b908582813d8311611c99575b611c8181836118a1565b810103126102a25750611c93906118d9565b38611c65565b503d611c77565b86513d6000823e3d90fd5b16149050828438611aab565b9050611cd1919350883d8a1161111a5761110981836118a1565b929038611aa4565b908582813d8311611d07575b611cef81836118a1565b810103126102a25750611d01906118d9565b38611a77565b503d611ce556fea26469706673582212204e51dfb70f857a0542ade6c5b950a911312e6ffb8efe24c01a4f9e842892a0a664736f6c63430008140033","linkReferences":{}},"methodIdentifiers":{"AIRDROP_PER_DAV()":"407bd89c","airdropAmountByDayIndex(uint256)":"1e69d540","airdropAmountByTokenDayIndex(address,uint256)":"3fabcc76","airdropUnitsByDayIndex(uint256)":"dadbce75","airdropUnitsByTokenDayIndex(address,uint256)":"9a7f2b89","approveConsumer(address,uint256)":"ab1e2182","claim()":"4e71d92d","consumeFromBoost(address,address,uint256)":"42e92961","consumedDavUnits(address,address)":"e93eaa38","consumedDavUnitsByCycle(address,address,uint256)":"a16e9acb","consumerAllowances(address,address)":"1c6c792e","dav()":"266959d5","emergencyRemoveConsumer(address)":"d821ad4b","getAirdropStatsForDay(uint256)":"7a363e0c","getAirdropStatsForTokenDay(address,uint256)":"e2d72bf9","getClaimable(address,address)":"3fb81428","getConsumedDavUnitsByCycle(address,address,uint256)":"680a3011","getConsumedDavUnitsCurrentCycle(address,address)":"8e508b45","isConsumer(address)":"834ff739","owner()":"8da5cb5b","pause()":"8456cb59","paused()":"5c975abb","renounceOwnership()":"715018a6","revokeConsumer(address)":"ce74da4f","setConsumer(address,bool)":"02c9ef45","stateToken()":"13f9afb3","swap()":"8119c065","transferOwnership(address)":"f2fde38b","unpause()":"3f4ba83a"},"id":41}