{"abi":[{"type":"constructor","inputs":[{"name":"_state","type":"address","internalType":"address"},{"name":"_wpls","type":"address","internalType":"address"},{"name":"_router","type":"address","internalType":"address"},{"name":"_factory","type":"address","internalType":"address"},{"name":"_swapVault","type":"address","internalType":"address"},{"name":"_swap","type":"address","internalType":"address"}],"stateMutability":"nonpayable"},{"type":"receive","stateMutability":"payable"},{"type":"function","name":"FACTORY","inputs":[],"outputs":[{"name":"","type":"address","internalType":"address"}],"stateMutability":"view"},{"type":"function","name":"ROUTER","inputs":[],"outputs":[{"name":"","type":"address","internalType":"address"}],"stateMutability":"view"},{"type":"function","name":"STATE","inputs":[],"outputs":[{"name":"","type":"address","internalType":"address"}],"stateMutability":"view"},{"type":"function","name":"SWAP","inputs":[],"outputs":[{"name":"","type":"address","internalType":"address"}],"stateMutability":"view"},{"type":"function","name":"SWAP_VAULT","inputs":[],"outputs":[{"name":"","type":"address","internalType":"address"}],"stateMutability":"view"},{"type":"function","name":"WPLS","inputs":[],"outputs":[{"name":"","type":"address","internalType":"address"}],"stateMutability":"view"},{"type":"function","name":"addMoreLiquidity","inputs":[{"name":"stateAmount","type":"uint256","internalType":"uint256"},{"name":"wplsAmount","type":"uint256","internalType":"uint256"}],"outputs":[{"name":"liquidity","type":"uint256","internalType":"uint256"}],"stateMutability":"payable"},{"type":"function","name":"calculateOptimalSplit","inputs":[{"name":"totalWPLS","type":"uint256","internalType":"uint256"},{"name":"stateReserve","type":"uint256","internalType":"uint256"},{"name":"wplsReserve","type":"uint256","internalType":"uint256"}],"outputs":[{"name":"wplsForSwap","type":"uint256","internalType":"uint256"},{"name":"expectedState","type":"uint256","internalType":"uint256"},{"name":"stateForLP","type":"uint256","internalType":"uint256"},{"name":"wplsForLP","type":"uint256","internalType":"uint256"}],"stateMutability":"pure"},{"type":"function","name":"convertPLSToWPLS","inputs":[],"outputs":[],"stateMutability":"nonpayable"},{"type":"function","name":"createPoolOneClick","inputs":[{"name":"stateAmount","type":"uint256","internalType":"uint256"},{"name":"wplsAmount","type":"uint256","internalType":"uint256"}],"outputs":[],"stateMutability":"payable"},{"type":"function","name":"executeBuyAndBurn","inputs":[],"outputs":[],"stateMutability":"nonpayable"},{"type":"function","name":"executeFullBuyAndBurn","inputs":[],"outputs":[],"stateMutability":"nonpayable"},{"type":"function","name":"getControllerStatus","inputs":[],"outputs":[{"name":"plsBalance","type":"uint256","internalType":"uint256"},{"name":"wplsBalance","type":"uint256","internalType":"uint256"},{"name":"stateBalance","type":"uint256","internalType":"uint256"},{"name":"poolAddress","type":"address","internalType":"address"},{"name":"poolStateReserve","type":"uint256","internalType":"uint256"},{"name":"poolWplsReserve","type":"uint256","internalType":"uint256"}],"stateMutability":"view"},{"type":"function","name":"getPoolReserves","inputs":[],"outputs":[{"name":"stateReserve","type":"uint256","internalType":"uint256"},{"name":"wplsReserve","type":"uint256","internalType":"uint256"}],"stateMutability":"view"},{"type":"function","name":"owner","inputs":[],"outputs":[{"name":"","type":"address","internalType":"address"}],"stateMutability":"view"},{"type":"function","name":"renounceOwnership","inputs":[],"outputs":[],"stateMutability":"nonpayable"},{"type":"function","name":"rescuePLS","inputs":[{"name":"amount","type":"uint256","internalType":"uint256"}],"outputs":[],"stateMutability":"nonpayable"},{"type":"function","name":"rescueTokens","inputs":[{"name":"token","type":"address","internalType":"address"},{"name":"amount","type":"uint256","internalType":"uint256"}],"outputs":[],"stateMutability":"nonpayable"},{"type":"function","name":"setStateWplsPool","inputs":[{"name":"poolAddress","type":"address","internalType":"address"}],"outputs":[],"stateMutability":"nonpayable"},{"type":"function","name":"setupSwapVaultAllowance","inputs":[{"name":"amount","type":"uint256","internalType":"uint256"}],"outputs":[],"stateMutability":"nonpayable"},{"type":"function","name":"stateWplsPool","inputs":[],"outputs":[{"name":"","type":"address","internalType":"address"}],"stateMutability":"view"},{"type":"function","name":"transferOwnership","inputs":[{"name":"newOwner","type":"address","internalType":"address"}],"outputs":[],"stateMutability":"nonpayable"},{"type":"event","name":"BuyAndBurnExecuted","inputs":[{"name":"wplsUsed","type":"uint256","indexed":false,"internalType":"uint256"},{"name":"stateBought","type":"uint256","indexed":false,"internalType":"uint256"},{"name":"liquidityBurned","type":"uint256","indexed":false,"internalType":"uint256"}],"anonymous":false},{"type":"event","name":"FullBuyAndBurnExecuted","inputs":[{"name":"plsConverted","type":"uint256","indexed":false,"internalType":"uint256"},{"name":"wplsProcessed","type":"uint256","indexed":false,"internalType":"uint256"}],"anonymous":false},{"type":"event","name":"InitialPoolCreated","inputs":[{"name":"pool","type":"address","indexed":true,"internalType":"address"},{"name":"stateAmount","type":"uint256","indexed":false,"internalType":"uint256"},{"name":"totalWpls","type":"uint256","indexed":false,"internalType":"uint256"},{"name":"plsSent","type":"uint256","indexed":false,"internalType":"uint256"}],"anonymous":false},{"type":"event","name":"LiquidityAdded","inputs":[{"name":"pool","type":"address","indexed":true,"internalType":"address"},{"name":"stateAmount","type":"uint256","indexed":false,"internalType":"uint256"},{"name":"wplsAmount","type":"uint256","indexed":false,"internalType":"uint256"},{"name":"liquidityBurned","type":"uint256","indexed":false,"internalType":"uint256"}],"anonymous":false},{"type":"event","name":"OwnershipTransferred","inputs":[{"name":"previousOwner","type":"address","indexed":true,"internalType":"address"},{"name":"newOwner","type":"address","indexed":true,"internalType":"address"}],"anonymous":false},{"type":"event","name":"PLSConverted","inputs":[{"name":"plsAmount","type":"uint256","indexed":false,"internalType":"uint256"},{"name":"wplsAmount","type":"uint256","indexed":false,"internalType":"uint256"}],"anonymous":false},{"type":"event","name":"PoolCreated","inputs":[{"name":"pool","type":"address","indexed":true,"internalType":"address"},{"name":"stateAmount","type":"uint256","indexed":false,"internalType":"uint256"},{"name":"wplsAmount","type":"uint256","indexed":false,"internalType":"uint256"},{"name":"liquidity","type":"uint256","indexed":false,"internalType":"uint256"}],"anonymous":false},{"type":"event","name":"SwapVaultAllowanceSet","inputs":[{"name":"amount","type":"uint256","indexed":false,"internalType":"uint256"}],"anonymous":false},{"type":"error","name":"OwnableInvalidOwner","inputs":[{"name":"owner","type":"address","internalType":"address"}]},{"type":"error","name":"OwnableUnauthorizedAccount","inputs":[{"name":"account","type":"address","internalType":"address"}]},{"type":"error","name":"ReentrancyGuardReentrantCall","inputs":[]},{"type":"error","name":"SafeERC20FailedOperation","inputs":[{"name":"token","type":"address","internalType":"address"}]}],"bytecode":{"object":"0x610140346200039657601f62002b8138819003918201601f1916830191906001600160401b038311848410176200039b578160c0928592604095865283398101031262000396576200005182620003b1565b9060209162000062838501620003b1565b6200006f838601620003b1565b906200007e60608701620003b1565b926200009b60a06200009360808a01620003b1565b9801620003b1565b9533156200037e5760008054336001600160a01b031982168117835588516001600160a01b039390928416907f8be0079c531659141344cd1fd0a4f28419497f9722a3daafe3b4186f6b6457e09080a360018055818416156200034c575080841615620003195780851615620002e45780861615620002ae5780891615620002755787161562000243575060805260a05260c05260e05261010092835261012091825251906127ba9283620003c7843960805183818161029801528181610aa701528181610cba0152818161137a01528181611a0101528181611fcc015281816121b601526124e2015260a0518381816101bf0152818161037101528181610671015281816107280152818161080801528181610b0401528181610d300152818161116d01528181611216015281816113360152818161159a015281816117420152818161212d0152612537015260c0518381816102f401528181610dc001528181611b18015281816120e3015261249e015260e051838181610d5f0152611b5c01525182818161025a0152611ad4015251818181610c81015281816119b90152611b9f0152f35b60649086519062461bcd60e51b82526004820152600c60248201526b0496e76616c696420737761760a41b6044820152fd5b865162461bcd60e51b8152600481018390526012602482015271125b9d985b1a59081cddd85c081d985d5b1d60721b6044820152606490fd5b865162461bcd60e51b815260048101839052600f60248201526e496e76616c696420666163746f727960881b6044820152606490fd5b865162461bcd60e51b815260048101839052600e60248201526d24b73b30b634b2103937baba32b960911b6044820152606490fd5b865162461bcd60e51b815260048101839052600c60248201526b496e76616c69642057504c5360a01b6044820152606490fd5b62461bcd60e51b815260048101839052600d60248201526c496e76616c696420535441544560981b6044820152606490fd5b8551631e4fbdf760e01b815260006004820152602490fd5b600080fd5b634e487b7160e01b600052604160045260246000fd5b51906001600160a01b0382168203620003965756fe60806040818152600480361015610021575b505050361561001f57600080fd5b005b600092833560e01c90816304d8410814611b8b575080632dd3100014611b4757806332fe7b2614611b03578063410686a114611abf57806341608b081461199957806350fd7cf7146118e057806357376198146117e95780635969cd881461154d578063715018a6146114f35780637a1dc2451461145c5780638c189d11146112f35780638da5cb5b146112cb57806394b036e114610c215780639f3c1bdb14610be1578063a163cd5414610ad6578063c486456c14610a92578063e81a840114610a69578063eb02241414610a3f578063ebb56c9a146107ac578063ec8be6ea146101f2578063ef8ef56f146101aa5763f2fde38b0361001157346101a65760203660031901126101a657610135611bce565b9061013e611bfa565b6001600160a01b03918216928315610190575050600054826001600160601b0360a01b821617600055167f8be0079c531659141344cd1fd0a4f28419497f9722a3daafe3b4186f6b6457e0600080a380f35b51631e4fbdf760e01b8152908101849052602490fd5b8280fd5b5050346101ee57816003193601126101ee57517f00000000000000000000000000000000000000000000000000000000000000006001600160a01b03168152602090f35b5080fd5b50916101fd36611be4565b610208939193611bfa565b610210611db8565b6002546001600160a01b03906102299082161515611ddb565b84156102358115611c72565b829434610723575b85156106e95784516323b872dd60e01b8082526001600160a01b037f000000000000000000000000000000000000000000000000000000000000000016828b0190815230602082810191909152604082018b9052999a9899987f0000000000000000000000000000000000000000000000000000000000000000871697909390918a90829081906060010381888c5af1801561064057908a92916106cc575b508061064a575b5050865163095ea7b360e01b8082527f00000000000000000000000000000000000000000000000000000000000000006001600160a01b038116858401908152602081018e9052929c91935090918a908d9081906040010381888c5af19b8c15610640578b9c9b9a9b610623575b5088518381526001600160a01b038216858201908152602081019b909b527f000000000000000000000000000000000000000000000000000000000000000088169a8c90829081900360400181898f5af1801561061957908892916105fc575b501694605f820290828204605f1417156105e957605f8c029b808d04605f036105d65761012c4201928342116105c3576064928c9d9e9284928d9e60248e9f519e8f9062e8e33760e81b82528c820152015260448d0152828c01520460848a01520460a488015261dead60c488015260e48701526060866101048186885af19889156105b95783978497859b61057f575b508a15610546578b859160448c51809481938883528b8a8401528160248401525af1801561053c576044928d959492879261051f575b508b51978895869485528401528160248401525af19081156105145750907f64b83944e79c3ce8d4c297411de637c3e102d064677aac0c163976ebdcd6f50e9392916104e7575b5060025485519485526020850192909252604084018690521691606090a26001805551908152f35b61050690883d8a1161050d575b6104fe8183611c50565b810190611cd8565b50386104bf565b503d6104f4565b8651903d90823e3d90fd5b61053590873d891161050d576104fe8183611c50565b5038610478565b8a513d87823e3d90fd5b895162461bcd60e51b81528085018d90526013602482015272139bc81314081d1bdad95b9cc81b5a5b9d1959606a1b6044820152606490fd5b91985099506105a691965060603d81116105b2575b61059e8183611c50565b810190611d59565b96919790969938610442565b503d610594565b88513d85823e3d90fd5b634e487b7160e01b875260118652602487fd5b634e487b7160e01b865260118552602486fd5b634e487b7160e01b855260118452602485fd5b610612908d803d1061050d576104fe8183611c50565b50386103b1565b8a513d88823e3d90fd5b610639908c8d3d1061050d576104fe8183611c50565b5038610351565b89513d87823e3d90fd5b885192835233848401908152306020820152604081019190915282908190606001038186897f0000000000000000000000000000000000000000000000000000000000000000165af180156106c2576106a5575b87816102e3565b6106bb90883d8a1161050d576104fe8183611c50565b503861069e565b87513d85823e3d90fd5b6106e290833d851161050d576104fe8183611c50565b50386102dc565b845162461bcd60e51b81526020818a01526014602482015273139bc815d41314cbd41314c81c1c9bdd9a59195960621b6044820152606490fd5b9450817f000000000000000000000000000000000000000000000000000000000000000016803b156107a857858891865192838092630d0e30db60e41b825234905af1801561079e57908691610786575b50506107803484611cb5565b9461023d565b61078f90611c26565b61079a578438610774565b8480fd5b85513d88823e3d90fd5b8580fd5b5090346101a657826003193601126101a6576107c6611bfa565b6107ce611db8565b6002546001600160a01b03906107e79082161515611ddb565b8151928380926370a0823160e01b82523083830152602095869160249586917f0000000000000000000000000000000000000000000000000000000000000000165afa908115610a35578691610a03575b5080156109ce57610847611f61565b91811515806109c5575b1561098e57906108619291611e2b565b939183959193156109595784156109265761087c90866120d3565b968388106108e657887ff102ca0afd04492ec61f7b3f6ad41ccde11037391b8387bc42d54e3a1683b60789896108dc8a6108c08b6108ba818d612485565b92611cb5565b9251938493846040919493926060820195825260208201520152565b0390a16001805580f35b865162461bcd60e51b8152928301526019908201527f496e73756666696369656e7420535441544520626f75676874000000000000006044820152606490fd5b865162461bcd60e51b8152808401899052600e818401526d04e6f2057504c5320666f72204c560941b6044820152606490fd5b865162461bcd60e51b81528084018990526010818401526f04e6f2057504c5320666f7220737761760841b6044820152606490fd5b855162461bcd60e51b815280850188905260128187015271496e76616c696420706f6f6c20737461746560701b6044820152606490fd5b50821515610851565b5060116064928585519362461bcd60e51b8552840152820152704e6f2057504c5320617661696c61626c6560781b6044820152fd5b90508481813d8311610a2e575b610a1a8183611c50565b81010312610a29575138610838565b600080fd5b503d610a10565b84513d88823e3d90fd5b828434610a665780600319360112610a665750610a5a611f61565b82519182526020820152f35b80fd5b5050346101ee57816003193601126101ee5760025490516001600160a01b039091168152602090f35b5050346101ee57816003193601126101ee57517f00000000000000000000000000000000000000000000000000000000000000006001600160a01b03168152602090f35b5090346101a657826003193601126101a657610af0611bfa565b610af8611db8565b47918215610bab5783907f00000000000000000000000000000000000000000000000000000000000000006001600160a01b031690813b156101a6578351630d0e30db60e41b81529183918391829088905af18015610ba157610b8d575b50507ff322c85477f2e4e0aeb2199370ebd7e5fd19c1431cec752dbb823f8022ff41c7918151908082526020820152a16001805580f35b610b9690611c26565b6101a6578238610b56565b83513d84823e3d90fd5b6020606492519162461bcd60e51b83528201526011602482015270139bc8141314c81d1bc818dbdb9d995c9d607a1b6044820152fd5b509134610a66576060366003190112610a665750610c09608092604435906024359035611e2b565b92939091815194855260208501528301526060820152f35b509190610c2d36611be4565b9390610c37611bfa565b610c3f611db8565b6002546001600160a01b0390811661128857610c5c821515611c72565b859034611211575b81156111db5784516323b872dd60e01b8082526001600160a01b037f00000000000000000000000000000000000000000000000000000000000000001686830190815230602082810191909152604082018790527f00000000000000000000000000000000000000000000000000000000000000008581169b909594919392909190849082908e9082908f90829060600103925af1801561106d57908492916111be575b5080611146575b5050875163e6a4390560e01b81526001600160a01b03808616828a019081527f00000000000000000000000000000000000000000000000000000000000000009182166020820152909b919592507f00000000000000000000000000000000000000000000000000000000000000008516908490879081906040010381845afa95861561106d578a93928d8b938e93849a611127575b50888a161561109e575b5050935163095ea7b360e01b8082527f00000000000000000000000000000000000000000000000000000000000000006001600160a01b038116948301948552602085018c905295909391928792849291839182906040015b03925af18015611094578d8b8e898f96610e4d8e988c988c98611077575b5051988997889687948552840160209093929193604081019460018060a01b031681520152565b0393165af1801561106d57611050575b50605f8702878104605f148815171561103d57605f8702878104605f0361102a5761012c420191824211611017579286928c9d9e928b9c9d958e8c9d97519c8d98899762e8e33760e81b8952309560649004946064900493890197610ec198611d74565b03921691818c5a94606095f191821561100d5789938a958b94610fe3575b501696876001600160601b0360a01b600254161760025561dead89519163a9059cbb60e01b835282015282602482015281816044818d8c5af18015610fd95793610f93899a95947fc8e774967d7f45e5814dbb800335ed47014999568397f08e79b0f322047f743f94610fb198947f24a8e122edf6b2afbf7f99f15bdc5a99378bdb8dd31b1e0ec190ff9854c4fd209c97610fbb575b50508651938493846040919493926060820195825260208201520152565b0390a251928352602083019190915234604083015281906060820190565b0390a26001805580f35b81610fd192903d1061050d576104fe8183611c50565b503880610f75565b89513d8c823e3d90fd5b919450925061100191945060603d81116105b25761059e8183611c50565b94919390949238610edf565b88513d8b823e3d90fd5b634e487b7160e01b8d5260118b5260248dfd5b634e487b7160e01b8c5260118a5260248cfd5b634e487b7160e01b8b526011895260248bfd5b61106690843d861161050d576104fe8183611c50565b5038610e5d565b8a513d8d823e3d90fd5b61108d908a3d8c1161050d576104fe8183611c50565b5038610e26565b8b513d8e823e3d90fd5b95516364e329cb60e11b81526001600160a01b0380871695820195865290911660208501529097509293859284928391829060400103925af1908115610fd9578a84610e088c95948c9484916110fa575b5098918f9150610daf565b61111a9150833d8511611120575b6111128183611c50565b810190611cf0565b386110ef565b503d611108565b61113f919a50883d8a11611120576111128183611c50565b9838610da5565b89519283523389840190815230602082015260408101919091528290819060600103818c877f0000000000000000000000000000000000000000000000000000000000000000165af1801561100d576111a1575b8181610d0f565b6111b790823d841161050d576104fe8183611c50565b503861119a565b6111d490833d851161050d576104fe8183611c50565b5038610d08565b845162461bcd60e51b8152602081860152601060248201526f139bc815d41314c81c1c9bdd9a59195960821b6044820152606490fd5b8091507f000000000000000000000000000000000000000000000000000000000000000016803b156107a857858491865192838092630d0e30db60e41b825234905af1801561079e57908691611274575b505061126e3487611cb5565b90610c64565b61127d90611c26565b61079a578438611262565b835162461bcd60e51b8152602081850152601860248201527f506f6f6c20616c726561647920696e697469616c697a656400000000000000006044820152606490fd5b5050346101ee57816003193601126101ee57905490516001600160a01b039091168152602090f35b508290346101ee57816003193601126101ee5782516370a0823160e01b808252308284015293479392839260209284929091906001600160a01b039085836024817f000000000000000000000000000000000000000000000000000000000000000086165afa928315611452578593611423575b508351998a5230908a01528489602481847f0000000000000000000000000000000000000000000000000000000000000000165afa93841561141857936113e8575b60c098506002541693846113d4575b82519788528701528501526060840152608083015260a0820152f35b945094506113e0611f61565b9590946113b8565b92508388813d8311611411575b6113ff8183611c50565b81010312610a295760c09751926113a9565b503d6113f5565b8351903d90823e3d90fd5b9092508581813d831161144b575b61143b8183611c50565b81010312610a295751918a611367565b503d611431565b84513d87823e3d90fd5b50346101a65760203660031901126101a657803590611479611bfa565b4782116114b95750825483918291829182916001600160a01b03168282156114b0575bf1156114a6575080f35b51903d90823e3d90fd5b506108fc61149c565b606490602084519162461bcd60e51b83528201526014602482015273496e73756666696369656e742062616c616e636560601b6044820152fd5b8334610a665780600319360112610a665761150c611bfa565b600080546001600160a01b0319811682556001600160a01b03167f8be0079c531659141344cd1fd0a4f28419497f9722a3daafe3b4186f6b6457e08280a380f35b5090346101a657826003193601126101a657611567611bfa565b61156f611db8565b478061173f575b81516370a0823160e01b815230938101939093526001600160a01b036020846024817f000000000000000000000000000000000000000000000000000000000000000085165afa9081156117355785916116e2575b7fdef1ee9e36158fba837966672238b8b668a41806d5b2370a824777c9b69c3018945081151590816116d4575b50611610575b82519182526020820152a16001805580f35b611618611f61565b811515806116cb575b61162d575b50506115fe565b6116379183611e2b565b918391931515806116c2575b61164f575b5050611626565b61165990826120d3565b9183831061164857611699816116936116b6937ff102ca0afd04492ec61f7b3f6ad41ccde11037391b8387bc42d54e3a1683b60797612485565b93611cb5565b918751938493846040919493926060820195825260208201520152565b0390a138808080611648565b50821515611643565b50801515611621565b9050600254161515386115f8565b90506020843d821161172d575b816116fc60209383611c50565b81010312610a29577fdef1ee9e36158fba837966672238b8b668a41806d5b2370a824777c9b69c30189351906115cb565b3d91506116ef565b83513d87823e3d90fd5b837f00000000000000000000000000000000000000000000000000000000000000006001600160a01b0316803b156101ee5781839186865180948193630d0e30db60e41b83525af180156117df576117c7575b50507ff322c85477f2e4e0aeb2199370ebd7e5fd19c1431cec752dbb823f8022ff41c7828051838152836020820152a1611576565b6117d090611c26565b6117db578338611792565b8380fd5b84513d84823e3d90fd5b5090346101a657806003193601126101a657611803611bce565b9061180c611bfa565b6001600160a01b039182169182156118ad578454825163a9059cbb60e01b6020808301918252939092166001600160a01b0316602480830191909152356044820152869190611867816064810103601f198101835282611c50565b519082865af1156118a45783513d61189b5750813b155b611886578380f35b51635274afe760e01b81529182015260249150fd5b6001141561187e565b513d84823e3d90fd5b815162461bcd60e51b8152602081860152600d60248201526c24b73b30b634b2103a37b5b2b760991b6044820152606490fd5b5090346101a65760203660031901126101a6576118fb611bce565b611903611bfa565b6001600160a01b0316918215611960575060607fc8e774967d7f45e5814dbb800335ed47014999568397f08e79b0f322047f743f91836001600160601b0360a01b600254161760025584815191818352816020840152820152a280f35b6020606492519162461bcd60e51b83528201526014602482015273496e76616c696420706f6f6c206164647265737360601b6044820152fd5b5090346101a65760203660031901126101a6578135916119b7611bfa565b7f00000000000000000000000000000000000000000000000000000000000000006001600160a01b0316908490823b156101ee578351637b4a2c3760e11b81526001600160a01b037f0000000000000000000000000000000000000000000000000000000000000000169181019182523060208301526040820186905292839182908490829060600103925af18015611ab557611a7d575b507fc115ab6db47ff778b4578626e52deb31563e47b9157a3be1885339d341677ca39160209151908152a180f35b9160209193611aac7fc115ab6db47ff778b4578626e52deb31563e47b9157a3be1885339d341677ca394611c26565b93915091611a4f565b82513d86823e3d90fd5b5050346101ee57816003193601126101ee57517f00000000000000000000000000000000000000000000000000000000000000006001600160a01b03168152602090f35b5050346101ee57816003193601126101ee57517f00000000000000000000000000000000000000000000000000000000000000006001600160a01b03168152602090f35b5050346101ee57816003193601126101ee57517f00000000000000000000000000000000000000000000000000000000000000006001600160a01b03168152602090f35b8490346101ee57816003193601126101ee577f00000000000000000000000000000000000000000000000000000000000000006001600160a01b03168152602090f35b600435906001600160a01b0382168203610a2957565b6040906003190112610a29576004359060243590565b6000546001600160a01b03163303611c0e57565b60405163118cdaa760e01b8152336004820152602490fd5b67ffffffffffffffff8111611c3a57604052565b634e487b7160e01b600052604160045260246000fd5b90601f8019910116810190811067ffffffffffffffff821117611c3a57604052565b15611c7957565b60405162461bcd60e51b8152602060048201526014602482015273125b9d985b1a590814d510551148185b5bdd5b9d60621b6044820152606490fd5b91908201809211611cc257565b634e487b7160e01b600052601160045260246000fd5b90816020910312610a2957518015158103610a295790565b90816020910312610a2957516001600160a01b0381168103610a295790565b9061251c91828102928184041490151715611cc257565b81810292918115918404141715611cc257565b8115611d43570490565b634e487b7160e01b600052601260045260246000fd5b90816060910312610a29578051916040602083015192015190565b9490989796929360e096929461010087019a60018060a01b039687809216895216602088015260408701526060860152608085015260a08401521660c08201520152565b600260015414611dc9576002600155565b604051633ee5aeb560e01b8152600490fd5b15611de257565b60405162461bcd60e51b8152602060048201526014602482015273141bdbdb081b9bdd081a5b9a5d1a585b1a5e995960621b6044820152606490fd5b91908203918211611cc257565b9260009360009081948294611e408282611d26565b906046840284810460461485151715611f39576064909593919495049483915b600a8310611e75575b50505050505093929190565b94995092975090955091611e898482611cb5565b95611e9d611e978883611d39565b8a611e1e565b98611ec4611eab8786611e1e565b98611ebf611eb98d85611e1e565b8b611d26565b611d39565b988a8a808210611ed5575050611e69565b92611ebf86611eee611ef3948498999a9b9c9697611e1e565b611d26565b80821115611f2f57611f0491611e1e565b955b6000198114611f1b5760010191949093611e60565b634e487b7160e01b82526011600452602482fd5b5060011c95611f06565b634e487b7160e01b86526011600452602486fd5b51906001600160701b0382168203610a2957565b6002546001600160a01b039081169190821561209f57604051630240bc6b60e21b815290606082600481875afa938415612036576000928395612042575b5090602060049260405193848092630dfe168160e01b82525afa91821561203657600092612016575b50807f000000000000000000000000000000000000000000000000000000000000000016911614600014612006576001600160701b03809116921690565b6001600160701b03928316921690565b61202f91925060203d8111611120576111128183611c50565b9038611fc8565b6040513d6000823e3d90fd5b929094506060833d8211612097575b8161205e60609383611c50565b81010312610a665761206f83611f4d565b90604061207e60208601611f4d565b94015163ffffffff811603610a66575091936020611f9f565b3d9150612051565b60405162461bcd60e51b815260206004820152600c60248201526b141bdbdb081b9bdd081cd95d60a21b6044820152606490fd5b6040805163095ea7b360e01b81527f00000000000000000000000000000000000000000000000000000000000000006001600160a01b038181166004808501919091526024840186905296600096909560209490939192907f000000000000000000000000000000000000000000000000000000000000000082169086816044818d865af1801561247b5761245e575b5086519467ffffffffffffffff94606087018681118882101761244b57895260028752878701928936853787511561243857835286516001101561242557928b95928b9c959289989560248c9b9d9e9d857f0000000000000000000000000000000000000000000000000000000000000000168d819e82908c015251928380926370a0823160e01b9d8e835230908301525afa9d8e1561241a579d6123e5575b5061221061271091611d0f565b049561012c420142116123d257959290918e94928c519788956338ed173960e01b875260a48701928c880152602487015260a060448701525180915260c485019190865b8c8282106123ac5750505050839182869230606483015261012c420160848301520393165af180156123a2579085949392916122fd575b505060249086519586938492835230908301525afa9283156122f4575085926122bf575b50506122bc929350611e1e565b90565b90809250813d83116122ed575b6122d68183611c50565b810103126117db576122bc929350518392386122af565b503d6122cc565b513d87823e3d90fd5b90919293503d808b843e6123118184611c50565b82019185818403126123875780519082821161239e570182601f8201121561238757805191821161238b5785808360051b938a519061235283870183611c50565b81520192820101928311612387579085809594939201905b828210612377575061228b565b815181528695918201910161236a565b8a80fd5b634e487b7160e01b8b526041855260248bfd5b8b80fd5b87513d8c823e3d90fd5b919496509282959750819087600194511681520194019101908f95939192889593612254565b634e487b7160e01b8f526011895260248ffd5b909c508981813d8311612413575b6123fd8183611c50565b8101031261240f57519b612210612203565b8e80fd5b503d6123f3565b8d51903d90823e3d90fd5b634e487b7160e01b8b5260328c5260248bfd5b634e487b7160e01b8c5260328d5260248cfd5b634e487b7160e01b8c5260418d5260248cfd5b61247490873d891161050d576104fe8183611c50565b5038612163565b88513d8c823e3d90fd5b6040805163095ea7b360e01b8082526001600160a01b037f000000000000000000000000000000000000000000000000000000000000000081811660048086019190915260248501879052979660209660009593949193909291907f00000000000000000000000000000000000000000000000000000000000000009089816044818b868c165af1801561274057612767575b5087519182526001600160a01b038316828c01908152602081018690527f000000000000000000000000000000000000000000000000000000000000000092908a908290819060400103818b8b88165af1801561274057918c999897959391602497959361274a575b508a86600254168a51988980926370a0823160e01b9e8f835230908301525afa96871561274057889761270d575b50612710806125bd86611d0f565b04906125c887611d0f565b0461012c4201918242116126f957928f8b93612602918b948f9760609b9a9998519c8d9b8c9a8b9862e8e33760e81b8a5230968a01611d74565b0393165af180156126ef576126d1575b506002541693835190815230888201528581602481885afa9081156126c757908692918491612694575b5061264c61dead92604492611e1e565b98848651978894859363a9059cbb60e01b85528401528b60248401525af19182156114a657505061267b575050565b8161269192903d1061050d576104fe8183611c50565b50565b8381939492503d83116126c0575b6126ac8183611c50565b810103126101a6575185919061264c61263c565b503d6126a2565b84513d85823e3d90fd5b6126e89060603d81116105b25761059e8183611c50565b5050612612565b85513d86823e3d90fd5b8f8b6011602492634e487b7160e01b835252fd5b9096508a81813d8311612739575b6127258183611c50565b81010312612735575195386125af565b8780fd5b503d61271b565b89513d8a823e3d90fd5b612760908c8d3d1061050d576104fe8183611c50565b5038612581565b61277d908a3d8c1161050d576104fe8183611c50565b503861251856fea2646970667358221220287f3ebed14aee1dc0bb55adcfe469c2db22b03a92a79c339f7183a7d8c5906c64736f6c63430008140033","linkReferences":{}},"methodIdentifiers":{"FACTORY()":"2dd31000","ROUTER()":"32fe7b26","STATE()":"c486456c","SWAP()":"04d84108","SWAP_VAULT()":"410686a1","WPLS()":"ef8ef56f","addMoreLiquidity(uint256,uint256)":"ec8be6ea","calculateOptimalSplit(uint256,uint256,uint256)":"9f3c1bdb","convertPLSToWPLS()":"a163cd54","createPoolOneClick(uint256,uint256)":"94b036e1","executeBuyAndBurn()":"ebb56c9a","executeFullBuyAndBurn()":"5969cd88","getControllerStatus()":"8c189d11","getPoolReserves()":"eb022414","owner()":"8da5cb5b","renounceOwnership()":"715018a6","rescuePLS(uint256)":"7a1dc245","rescueTokens(address,uint256)":"57376198","setStateWplsPool(address)":"50fd7cf7","setupSwapVaultAllowance(uint256)":"41608b08","stateWplsPool()":"e81a8401","transferOwnership(address)":"f2fde38b"},"id":44}