{"abi":[{"type":"constructor","inputs":[{"name":"_router","type":"address","internalType":"address"},{"name":"_factory","type":"address","internalType":"address"}],"stateMutability":"nonpayable"},{"type":"function","name":"BURN","inputs":[],"outputs":[{"name":"","type":"address","internalType":"address"}],"stateMutability":"view"},{"type":"function","name":"MAINNET_PULSEX_FACTORY","inputs":[],"outputs":[{"name":"","type":"address","internalType":"address"}],"stateMutability":"view"},{"type":"function","name":"MAINNET_PULSEX_ROUTER","inputs":[],"outputs":[{"name":"","type":"address","internalType":"address"}],"stateMutability":"view"},{"type":"function","name":"TIMELOCK_DELAY","inputs":[],"outputs":[{"name":"","type":"uint256","internalType":"uint256"}],"stateMutability":"view"},{"type":"function","name":"createLPAndRegister","inputs":[{"name":"token","type":"address","internalType":"address"},{"name":"tokenOwner","type":"address","internalType":"address"},{"name":"amountStateDesired","type":"uint256","internalType":"uint256"},{"name":"amountTokenDesired","type":"uint256","internalType":"uint256"},{"name":"amountStateMin","type":"uint256","internalType":"uint256"},{"name":"amountTokenMin","type":"uint256","internalType":"uint256"},{"name":"deadline","type":"uint256","internalType":"uint256"}],"outputs":[],"stateMutability":"nonpayable"},{"type":"function","name":"enableTimelock","inputs":[],"outputs":[],"stateMutability":"nonpayable"},{"type":"function","name":"executeRouterFactory","inputs":[],"outputs":[],"stateMutability":"nonpayable"},{"type":"function","name":"executeSwap","inputs":[],"outputs":[],"stateMutability":"nonpayable"},{"type":"function","name":"factory","inputs":[],"outputs":[{"name":"","type":"address","internalType":"address"}],"stateMutability":"view"},{"type":"function","name":"maxSlippageBps","inputs":[],"outputs":[{"name":"","type":"uint256","internalType":"uint256"}],"stateMutability":"view"},{"type":"function","name":"minDeadlineDelay","inputs":[],"outputs":[{"name":"","type":"uint32","internalType":"uint32"}],"stateMutability":"view"},{"type":"function","name":"owner","inputs":[],"outputs":[{"name":"","type":"address","internalType":"address"}],"stateMutability":"view"},{"type":"function","name":"pendingRouterFactory","inputs":[],"outputs":[{"name":"router","type":"address","internalType":"address"},{"name":"factory","type":"address","internalType":"address"},{"name":"eta","type":"uint256","internalType":"uint256"}],"stateMutability":"view"},{"type":"function","name":"pendingSwap","inputs":[],"outputs":[{"name":"swap","type":"address","internalType":"address"},{"name":"eta","type":"uint256","internalType":"uint256"}],"stateMutability":"view"},{"type":"function","name":"proposeRouterFactory","inputs":[{"name":"_router","type":"address","internalType":"address"},{"name":"_factory","type":"address","internalType":"address"}],"outputs":[],"stateMutability":"nonpayable"},{"type":"function","name":"proposeSwap","inputs":[{"name":"_swap","type":"address","internalType":"address"}],"outputs":[],"stateMutability":"nonpayable"},{"type":"function","name":"renounceOwnership","inputs":[],"outputs":[],"stateMutability":"nonpayable"},{"type":"function","name":"rescueETH","inputs":[{"name":"to","type":"address","internalType":"address"},{"name":"amount","type":"uint256","internalType":"uint256"}],"outputs":[],"stateMutability":"nonpayable"},{"type":"function","name":"rescueTokens","inputs":[{"name":"token","type":"address","internalType":"address"},{"name":"to","type":"address","internalType":"address"},{"name":"amount","type":"uint256","internalType":"uint256"}],"outputs":[],"stateMutability":"nonpayable"},{"type":"function","name":"router","inputs":[],"outputs":[{"name":"","type":"address","internalType":"address"}],"stateMutability":"view"},{"type":"function","name":"setMaxSlippageBps","inputs":[{"name":"bps","type":"uint256","internalType":"uint256"}],"outputs":[],"stateMutability":"nonpayable"},{"type":"function","name":"setMinDeadlineDelay","inputs":[{"name":"secondsDelay","type":"uint32","internalType":"uint32"}],"outputs":[],"stateMutability":"nonpayable"},{"type":"function","name":"setRouterFactory","inputs":[{"name":"_router","type":"address","internalType":"address"},{"name":"_factory","type":"address","internalType":"address"}],"outputs":[],"stateMutability":"nonpayable"},{"type":"function","name":"setSwap","inputs":[{"name":"_swap","type":"address","internalType":"address"}],"outputs":[],"stateMutability":"nonpayable"},{"type":"function","name":"swap","inputs":[],"outputs":[{"name":"","type":"address","internalType":"contract ISwapLike"}],"stateMutability":"view"},{"type":"function","name":"timelockEnabled","inputs":[],"outputs":[{"name":"","type":"bool","internalType":"bool"}],"stateMutability":"view"},{"type":"function","name":"transferOwnership","inputs":[{"name":"newOwner","type":"address","internalType":"address"}],"outputs":[],"stateMutability":"nonpayable"},{"type":"function","name":"useMainnet","inputs":[],"outputs":[],"stateMutability":"nonpayable"},{"type":"event","name":"ETHRescued","inputs":[{"name":"to","type":"address","indexed":true,"internalType":"address"},{"name":"amount","type":"uint256","indexed":false,"internalType":"uint256"}],"anonymous":false},{"type":"event","name":"LiquidityAdded","inputs":[{"name":"token","type":"address","indexed":true,"internalType":"address"},{"name":"pair","type":"address","indexed":true,"internalType":"address"},{"name":"usedA","type":"uint256","indexed":false,"internalType":"uint256"},{"name":"usedB","type":"uint256","indexed":false,"internalType":"uint256"},{"name":"liquidity","type":"uint256","indexed":false,"internalType":"uint256"}],"anonymous":false},{"type":"event","name":"MaxSlippageBpsUpdated","inputs":[{"name":"bps","type":"uint256","indexed":false,"internalType":"uint256"}],"anonymous":false},{"type":"event","name":"OwnershipTransferred","inputs":[{"name":"previousOwner","type":"address","indexed":true,"internalType":"address"},{"name":"newOwner","type":"address","indexed":true,"internalType":"address"}],"anonymous":false},{"type":"event","name":"RouterFactoryExecuted","inputs":[{"name":"router","type":"address","indexed":true,"internalType":"address"},{"name":"factory","type":"address","indexed":true,"internalType":"address"}],"anonymous":false},{"type":"event","name":"RouterFactoryProposed","inputs":[{"name":"router","type":"address","indexed":true,"internalType":"address"},{"name":"factory","type":"address","indexed":true,"internalType":"address"},{"name":"eta","type":"uint256","indexed":false,"internalType":"uint256"}],"anonymous":false},{"type":"event","name":"RouterFactoryUpdated","inputs":[{"name":"router","type":"address","indexed":true,"internalType":"address"},{"name":"factory","type":"address","indexed":true,"internalType":"address"}],"anonymous":false},{"type":"event","name":"SwapExecuted","inputs":[{"name":"swap","type":"address","indexed":true,"internalType":"address"}],"anonymous":false},{"type":"event","name":"SwapProposed","inputs":[{"name":"swap","type":"address","indexed":true,"internalType":"address"},{"name":"eta","type":"uint256","indexed":false,"internalType":"uint256"}],"anonymous":false},{"type":"event","name":"SwapSet","inputs":[{"name":"swap","type":"address","indexed":true,"internalType":"address"}],"anonymous":false},{"type":"event","name":"TimelockEnabled","inputs":[],"anonymous":false},{"type":"event","name":"TokensRescued","inputs":[{"name":"token","type":"address","indexed":true,"internalType":"address"},{"name":"to","type":"address","indexed":true,"internalType":"address"},{"name":"amount","type":"uint256","indexed":false,"internalType":"uint256"}],"anonymous":false},{"type":"error","name":"BadAddress","inputs":[]},{"type":"error","name":"BadAmount","inputs":[]},{"type":"error","name":"DeadlineExpired","inputs":[]},{"type":"error","name":"InvalidBps","inputs":[]},{"type":"error","name":"NoState","inputs":[]},{"type":"error","name":"NoSwap","inputs":[]},{"type":"error","name":"NotAContract","inputs":[]},{"type":"error","name":"OwnableInvalidOwner","inputs":[{"name":"owner","type":"address","internalType":"address"}]},{"type":"error","name":"OwnableUnauthorizedAccount","inputs":[{"name":"account","type":"address","internalType":"address"}]},{"type":"error","name":"PairInvalid","inputs":[]},{"type":"error","name":"ReentrancyGuardReentrantCall","inputs":[]},{"type":"error","name":"RouterFactoryMismatch","inputs":[]},{"type":"error","name":"SafeERC20FailedDecreaseAllowance","inputs":[{"name":"spender","type":"address","internalType":"address"},{"name":"currentAllowance","type":"uint256","internalType":"uint256"},{"name":"requestedDecrease","type":"uint256","internalType":"uint256"}]},{"type":"error","name":"SafeERC20FailedOperation","inputs":[{"name":"token","type":"address","internalType":"address"}]},{"type":"error","name":"TimelockEnforced","inputs":[]}],"bytecode":{"object":"0x608060409080825234620001c357818162001f138038038091620000248285620001c8565b833981010312620001c357620000486020620000408362000202565b920162000202565b3315620001ab5760008054336001600160a01b03198083168217845586516001600160a01b0396919590949390929087167f8be0079c531659141344cd1fd0a4f28419497f9722a3daafe3b4186f6b6457e08580a3600180558581169384158015620001a0575b6200019157503b156200018057803b156200018057855163c45a015560e01b8152602081600481875afa92831562000175579081879392946200012a575b50501693849116036200011957816002541617600255600354161760035551611cfb9081620002188239f35b835163a5ef531360e01b8152600490fd5b91935091506020823d82116200016c575b816200014a60209383620001c8565b8101031262000169575062000160859162000202565b913880620000ed565b80fd5b3d91506200013b565b8751903d90823e3d90fd5b85516309ee12d560e01b8152600490fd5b6332691b5760e01b8152600490fd5b5086831615620000af565b8251631e4fbdf760e01b815260006004820152602490fd5b600080fd5b601f909101601f19168101906001600160401b03821190821017620001ec57604052565b634e487b7160e01b600052604160045260246000fd5b51906001600160a01b0382168203620001c35756fe6080604052600436101561001257600080fd5b6000803560e01c8063099a04e51461162d57806325fc1b3d146115c357806327e9732e1461159f5780632f1364d8146115635780633f964c171461153057806351da011414611403578063599f5810146112de5780635ba1c1a9146112c05780635fce5c3a146112915780636956379914611195578063715018a61461113b5780638119c065146111125780638da5cb5b146110eb57806392c564c114610f88578063a91fd8fe14610e73578063acb3c07314610d91578063adc190e914610d62578063b320f6a914610d3f578063c0a2526c14610d22578063c45a015514610cf9578063c4aa739514610cdb578063cea9d26f14610c42578063d6e4dad214610c1e578063e6c4488714610b34578063e872968814610af7578063e92b8dd614610207578063f2fde38b1461017c5763f887ea401461015157600080fd5b346101795780600319360112610179576002546040516001600160a01b039091168152602090f35b80fd5b503461017957602036600319011261017957610196611734565b61019e611765565b6001600160a01b039081169081156101ee57600054826001600160601b0360a01b821617600055167f8be0079c531659141344cd1fd0a4f28419497f9722a3daafe3b4186f6b6457e0600080a380f35b604051631e4fbdf760e01b815260048101849052602490fd5b50346101795760e036600319011261017957610221611734565b61022961174f565b610231611765565b610239611996565b6002546001600160a01b031680158015610ae4575b610a2e57803b15610a51576003546001600160a01b031690813b15610a515760206004916040519283809263c45a015560e01b82525afa9081156108d4578591610ac5575b506001600160a01b031603610ab3576004546001600160a01b0316908115610aa157813b15610a51576020600492604051938480926313f9afb360e01b82525afa918215610a96578492610a75575b506001600160a01b03821615610a6357813b15610a51576001600160a01b038316158015610a40575b610a2e576001600160a01b03838116908316146107a757604435158015610a24575b610a0857608435158015610a1a575b610a08574260c435106109f65761035b63ffffffff600c54164261185f565b60c435106109c05760055480610900575b5061038460443530336001600160a01b0386166118ec565b61039b60643530336001600160a01b0387166118ec565b6002546103b990604435906001600160a01b039081169085166119b9565b6002546103d790606435906001600160a01b039081169086166119b9565b60035460405163e6a4390560e01b81526001600160a01b038581166004830152848116602483015290929116602083604481845afa9283156108505786936108df575b506001600160a01b0383161561085b575b50813b156107a757604051630dfe168160e01b81526020816004816001600160a01b0387165afa908115610850578691610831575b5060405163d21220a760e01b8152906020826004816001600160a01b0388165afa918215610697578792610800575b506001600160a01b03868116911690811491826107ea575b82156107b9575b5050156107a757604051630240bc6b60e21b81526060816004816001600160a01b0387165afa908161074c575b506104f25760405163ce4bfb8f60e01b8152600490fd5b8480606060018060a01b03600254166101046040518095819362e8e33760e81b835260018060a01b038c16600484015260018060a01b038b1660248401526064356044840152604435606484015260a435608484015260843560a484015261dead60c484015260c43560e48401525af192831561073f578195829383956106ee575b50836105a39181604435116106ca575b88606435116106a6575b6002546001600160a01b0390811691166119b9565b6002546105bf9087906001600160a01b03908116908a166119b9565b6004546001600160a01b0316803b156106a25760405163185dc71560e21b81526001600160a01b038981166004830152928316602482015291861660448301529091908290606490829084905af1801561069757610666575b506040805194855260208501919091528301526001600160a01b039081169216907f4a1a2a6176e9646d9e3157f7c2ab3c499f18337c0b0828cfb28e0a61de4a11f790606090a36001805580f35b67ffffffffffffffff819792971161068357604052946060610618565b634e487b7160e01b82526041600452602482fd5b6040513d89823e3d90fd5b8280fd5b6106c56106b58a606435611882565b336001600160a01b038d166118a2565b61058e565b6106e96106d983604435611882565b336001600160a01b0384166118a2565b610584565b965093509150506060843d606011610737575b8161070e606093836117df565b8101031261073357858451916105a36040602088015197015193968094959150610574565b8580fd5b3d9150610701565b50604051903d90823e3d90fd5b6060813d60601161079f575b81610765606093836117df565b8101031261079b5780610779604092611caa565b5061078660208201611caa565b50015163ffffffff81160361073357386104db565b8680fd5b3d9150610758565b60405163ce4bfb8f60e01b8152600490fd5b6001600160a01b038781169116149150816107d7575b5038806104ae565b6001600160a01b038516149050386107cf565b6001600160a01b038082169087161492506104a7565b61082391925060203d60201161082a575b61081b81836117df565b810190611801565b903861048f565b503d610811565b61084a915060203d60201161082a5761081b81836117df565b38610460565b6040513d88823e3d90fd5b6040516364e329cb60e11b81526001600160a01b0386811660048301528516602482015292506020908390604490829089905af19182156108d45785926108b3575b506001600160a01b038216156107a7573861042b565b6108cd91925060203d60201161082a5761081b81836117df565b903861089d565b6040513d87823e3d90fd5b6108f991935060203d60201161082a5761081b81836117df565b913861041a565b612710908103908082116109ac576109288161091e8460443561188f565b049260643561188f565b0490608435106109765760a43510610940573861036c565b60405162461bcd60e51b815260206004820152600e60248201526d39b634b83830b3b296ba37b5b2b760911b6044820152606490fd5b60405162461bcd60e51b815260206004820152600e60248201526d736c6970706167652d737461746560901b6044820152606490fd5b634e487b7160e01b86526011600452602486fd5b60405162461bcd60e51b815260206004820152600e60248201526d191958591b1a5b99481cda1bdc9d60921b6044820152606490fd5b604051631ab7da6b60e01b8152600490fd5b60405163749b593960e01b8152600490fd5b5060a4351561033c565b506064351561032d565b6040516332691b5760e01b8152600490fd5b506001600160a01b0381161561030b565b6040516309ee12d560e01b8152600490fd5b604051631b92fd0760e31b8152600490fd5b610a8f91925060203d60201161082a5761081b81836117df565b90386102e2565b6040513d86823e3d90fd5b60405163c84be13560e01b8152600490fd5b60405163a5ef531360e01b8152600490fd5b610ade915060203d60201161082a5761081b81836117df565b38610293565b506003546001600160a01b03161561024e565b5034610179578060031936011261017957600754600854600954604080516001600160a01b03948516815293909216602084015290820152606090f35b5034610179578060031936011261017957610b4d611765565b7398bf93ebf5c380c0e6ae8e192a7e2ae08edacc026001600160601b0360a01b9080826002541617600255731715a3e4a142d8b698131108995174f37aeba10d80926003541617600355803b15610a5157813b15610a515760405163c45a015560e01b8152602081600481855afa8015610a965783918591610c00575b506001600160a01b031603610ab3577f25c2d23e15d85040f0e7b96f13d8a726f8b906ff8f22f381c3225efa7a7d8e588380a380f35b610c18915060203d811161082a5761081b81836117df565b38610bca565b5034610179578060031936011261017957602063ffffffff600c5416604051908152f35b503461017957606036600319011261017957610c5c611734565b610c6461174f565b60443591610c70611765565b610c78611996565b6001600160a01b039081169182158015610cd1575b610a2e577f77023e19c7343ad491fd706c36335ca0e738340a91f29b1fd81e2673d44896c49181610cc186602094876118a2565b6040519586521693a36001805580f35b5081811615610c8d565b50346101795780600319360112610179576020600554604051908152f35b50346101795780600319360112610179576003546040516001600160a01b039091168152602090f35b5034610179578060031936011261017957602060405161dead8152f35b5034610179578060031936011261017957602060ff600654166040519015158152f35b50346101795780600319360112610179576020604051731715a3e4a142d8b698131108995174f37aeba10d8152f35b503461017957602036600319011261017957610dab611734565b610db3611765565b60ff60065416610e61576001600160a01b03818116918215610a2e573b15610a51576040516313f9afb360e01b815290602082600481865afa918215610a96578492610e41575b50811615610a63573b15610a5157600480546001600160a01b031916821790557fb003761af082bc7ba844287d7c11fb9bc756d6de66992025afff77d6636eeddb8280a280f35b610e5a91925060203d811161082a5761081b81836117df565b9038610dfa565b60405163418d246d60e11b8152600490fd5b503461017957602080600319360112610f8457610e8e611734565b90610e97611765565b60ff6006541615610e61576001600160a01b03828116928315610a2e573b15610a51576040516313f9afb360e01b8152908282600481875afa9182156108d4578592610f65575b50811615610a63573b15610a51576202a3004201804211610f515790817f325a3a59a74ca04157f8241434474254ebd6d5d84f7f0584b0c5d293c502f8f99282604051610f2a816117c3565b8681520152836001600160601b0360a01b600a541617600a5580600b55604051908152a280f35b634e487b7160e01b84526011600452602484fd5b610f7d919250833d851161082a5761081b81836117df565b9038610ede565b5080fd5b5034610179578060031936011261017957610fa1611765565b60ff6006541615610e6157604051610fb881611791565b6007546001600160a01b0390811680835260085482166020840181815260095460408601908152909492909190159081156110e2575b50610a2e575142106109f657818151163b15610a5157818351163b15610a515760046020838351166040519283809263c45a015560e01b82525afa9081156108d45785916110c4575b508280855116911603610ab35781905116906001600160601b0360a01b928284600254161760025551168092600354161760035582600755826008558260095581817f25c2d23e15d85040f0e7b96f13d8a726f8b906ff8f22f381c3225efa7a7d8e588580a37f1ccc7cdf8439bae3b9e25b3137bfc9d0d101159ebf51d61c68cc665637f62b508380a380f35b6110dc915060203d811161082a5761081b81836117df565b38611037565b90501538610fee565b5034610179578060031936011261017957546040516001600160a01b039091168152602090f35b50346101795780600319360112610179576004546040516001600160a01b039091168152602090f35b5034610179578060031936011261017957611154611765565b80546001600160a01b03198116825581906001600160a01b03167f8be0079c531659141344cd1fd0a4f28419497f9722a3daafe3b4186f6b6457e08280a380f35b5034610179576040366003190112610179576111af611734565b6111b761174f565b906111c0611765565b60ff60065416610e61576001600160a01b03918183169182158015611287575b610a2e573b15610a5157803b15610a515760405163c45a015560e01b8152602081600481865afa9182156108d45784918693611267575b50169283911603610ab357816001600160601b0360a01b8281600254161760025560035416176003557f25c2d23e15d85040f0e7b96f13d8a726f8b906ff8f22f381c3225efa7a7d8e588380a380f35b61128091935060203d811161082a5761081b81836117df565b9138611217565b50838216156111e0565b503461017957806003193601126101795760206040517398bf93ebf5c380c0e6ae8e192a7e2ae08edacc028152f35b503461017957806003193601126101795760206040516202a3008152f35b50346101795780600319360112610179576112f7611765565b60ff6006541615610e615760405161130e816117c3565b600a546001600160a01b03908116808352600b54602084019081529192919015610a2e575142106109f657818151163b15610a51576004602083835116604051928380926313f9afb360e01b82525afa908115610a965784916113e5575b5082811615610a63573b15610a51575116806001600160601b0360a01b600454161760045581600a5581600b55807fb003761af082bc7ba844287d7c11fb9bc756d6de66992025afff77d6636eeddb8380a27f87c53285f7c4900c3ae6271ec8108352156a5715e8a76249505d4e0f7f1dfed18280a280f35b6113fd915060203d811161082a5761081b81836117df565b3861136c565b50346101795760403660031901126101795761141d611734565b61142561174f565b9061142e611765565b60ff6006541615610e61576001600160a01b03918183169182158015611526575b610a2e573b15610a5157803b15610a515760405163c45a015560e01b8152602081600481865afa9182156108d45784918693611506575b50169283911603610ab3576202a3004201804211610f51576020817f8e3707bac3b1c98902e03c30c2cb413531ae3bec1f0675805e444a891c6523b792604080516114d081611791565b86815287858201520152846001600160601b0360a01b85816007541617600755600854161760085580600955604051908152a380f35b61151f91935060203d811161082a5761081b81836117df565b9138611486565b508382161561144f565b5034610179578060031936011261017957600a54600b54604080516001600160a01b039093168352602083019190915290f35b50346101795760203660031901126101795760043563ffffffff8116809103610f845761158e611765565b63ffffffff19600c541617600c5580f35b50346101795780600319360112610179576115b8611765565b6115c0611820565b80f35b5034610179576020366003190112610179576004356115e0611765565b611388811161161b576020817fe74c6c2ffbad205dc5fa75c6bed3188a5409468992fb86df6462df697731649792600555604051908152a180f35b60405163c6cc5d7f60e01b8152600490fd5b503461017957604036600319011261017957611647611734565b602435611652611765565b61165a611996565b6001600160a01b038216918215610a2e578380808481945af13d1561172f573d67ffffffffffffffff811161171b57604051906116a1601f8201601f1916602001836117df565b81528460203d92013e5b156116e25760207fb3579861130e4da8bb7b87c54d2d139937f23bcd6e4ebed9e75d0f78ab1cc11891604051908152a26001805580f35b60405162461bcd60e51b815260206004820152601160248201527011551217d514905394d1915497d1905253607a1b6044820152606490fd5b634e487b7160e01b85526041600452602485fd5b6116ab565b600435906001600160a01b038216820361174a57565b600080fd5b602435906001600160a01b038216820361174a57565b6000546001600160a01b0316330361177957565b60405163118cdaa760e01b8152336004820152602490fd5b6060810190811067ffffffffffffffff8211176117ad57604052565b634e487b7160e01b600052604160045260246000fd5b6040810190811067ffffffffffffffff8211176117ad57604052565b90601f8019910116810190811067ffffffffffffffff8211176117ad57604052565b9081602091031261174a57516001600160a01b038116810361174a5790565b60065460ff811661185c5760ff19166001176006557f779ecdd8d7978975066fc1de0a672e273d2203d9645ddf0d56f89ef4f8e788cf600080a1565b50565b9190820180921161186c57565b634e487b7160e01b600052601160045260246000fd5b9190820391821161186c57565b8181029291811591840414171561186c57565b60405163a9059cbb60e01b60208201526001600160a01b03909216602483015260448201929092526118ea916118e582606481015b03601f1981018452836117df565b61192e565b565b6040516323b872dd60e01b60208201526001600160a01b03928316602482015292909116604483015260648201929092526118ea916118e582608481016118d7565b906000602091828151910182855af11561198a576000513d61198157506001600160a01b0381163b155b61195f5750565b604051635274afe760e01b81526001600160a01b039091166004820152602490fd5b60011415611958565b6040513d6000823e3d90fd5b6002600154146119a7576002600155565b604051633ee5aeb560e01b8152600490fd5b60408051636eb1769f60e11b8082523060048301526001600160a01b038581166024840152909695939493858216926020929091908383604481885afa928315611bac57600093611b7d575b5081831015611aa057508291611a1a91611882565b84519889523060048a01526001600160a01b03861660248a01529792839060449082905afa928315611a965750600092611a65575b50506118ea9394611a5f9161185f565b91611bb7565b81819392933d8311611a8f575b611a7c81836117df565b8101031261017957505184611a5f611a4f565b503d611a72565b513d6000823e3d90fd5b92939181819a969a11611aba575b50505050505050509050565b8491611ac591611882565b89519586523060048701526001600160a01b03871660248701529491829060449082905afa928315611b7257600093611b41575b5050828210611b1e5750611b109495500391611bb7565b803880808080808080611aae565b865163e570110f60e01b8152931660048401526024830152604482015260649150fd5b8181949293943d8311611b6b575b611b5981836117df565b81010312610179575051903880611af9565b503d611b4f565b88513d6000823e3d90fd5b90928482813d8311611ba5575b611b9481836117df565b810103126101795750519138611a05565b503d611b8a565b86513d6000823e3d90fd5b60405163095ea7b360e01b602082018181526001600160a01b038516602484015260448084019690965294825294939092611bf36064856117df565b60206000809386519082875af182513d82611c85575b505015611c19575b505050509050565b60405160208101969096526001600160a01b0316602486015260448086018290528552608085019067ffffffffffffffff821186831017611c715750611c6793946118e5916040528261192e565b8038808080611c11565b634e487b7160e01b81526041600452602490fd5b909150611ca257506001600160a01b0383163b15155b3880611c09565b600114611c9b565b51906dffffffffffffffffffffffffffff8216820361174a5756fea264697066735822122005375f3e9d3f66a0292004bde82932cc581c037d7fdfcc315634c14794f631af64736f6c63430008140033","linkReferences":{}},"methodIdentifiers":{"BURN()":"c0a2526c","MAINNET_PULSEX_FACTORY()":"adc190e9","MAINNET_PULSEX_ROUTER()":"5fce5c3a","TIMELOCK_DELAY()":"5ba1c1a9","createLPAndRegister(address,address,uint256,uint256,uint256,uint256,uint256)":"e92b8dd6","enableTimelock()":"27e9732e","executeRouterFactory()":"92c564c1","executeSwap()":"599f5810","factory()":"c45a0155","maxSlippageBps()":"c4aa7395","minDeadlineDelay()":"d6e4dad2","owner()":"8da5cb5b","pendingRouterFactory()":"e8729688","pendingSwap()":"3f964c17","proposeRouterFactory(address,address)":"51da0114","proposeSwap(address)":"a91fd8fe","renounceOwnership()":"715018a6","rescueETH(address,uint256)":"099a04e5","rescueTokens(address,address,uint256)":"cea9d26f","router()":"f887ea40","setMaxSlippageBps(uint256)":"25fc1b3d","setMinDeadlineDelay(uint32)":"2f1364d8","setRouterFactory(address,address)":"69563799","setSwap(address)":"acb3c073","swap()":"8119c065","timelockEnabled()":"b320f6a9","transferOwnership(address)":"f2fde38b","useMainnet()":"e6c44887"},"id":46}