{"abi":[{"type":"constructor","inputs":[{"name":"tokenName","type":"string","internalType":"string"},{"name":"tokenSymbol","type":"string","internalType":"string"},{"name":"recipientFivePercent","type":"address","internalType":"address"},{"name":"recipientNinetyFivePercent","type":"address","internalType":"address"}],"stateMutability":"nonpayable"},{"type":"function","name":"FIVE_PERCENT_ALLOCATION","inputs":[],"outputs":[{"name":"","type":"uint256","internalType":"uint256"}],"stateMutability":"view"},{"type":"function","name":"NINETY_FIVE_PERCENT_ALLOCATION","inputs":[],"outputs":[{"name":"","type":"uint256","internalType":"uint256"}],"stateMutability":"view"},{"type":"function","name":"allowance","inputs":[{"name":"owner","type":"address","internalType":"address"},{"name":"spender","type":"address","internalType":"address"}],"outputs":[{"name":"","type":"uint256","internalType":"uint256"}],"stateMutability":"view"},{"type":"function","name":"approve","inputs":[{"name":"spender","type":"address","internalType":"address"},{"name":"value","type":"uint256","internalType":"uint256"}],"outputs":[{"name":"","type":"bool","internalType":"bool"}],"stateMutability":"nonpayable"},{"type":"function","name":"balanceOf","inputs":[{"name":"account","type":"address","internalType":"address"}],"outputs":[{"name":"","type":"uint256","internalType":"uint256"}],"stateMutability":"view"},{"type":"function","name":"decimals","inputs":[],"outputs":[{"name":"","type":"uint8","internalType":"uint8"}],"stateMutability":"view"},{"type":"function","name":"name","inputs":[],"outputs":[{"name":"","type":"string","internalType":"string"}],"stateMutability":"view"},{"type":"function","name":"owner","inputs":[],"outputs":[{"name":"","type":"address","internalType":"address"}],"stateMutability":"view"},{"type":"function","name":"renounceOwnership","inputs":[],"outputs":[],"stateMutability":"nonpayable"},{"type":"function","name":"symbol","inputs":[],"outputs":[{"name":"","type":"string","internalType":"string"}],"stateMutability":"view"},{"type":"function","name":"totalSupply","inputs":[],"outputs":[{"name":"","type":"uint256","internalType":"uint256"}],"stateMutability":"view"},{"type":"function","name":"transfer","inputs":[{"name":"to","type":"address","internalType":"address"},{"name":"value","type":"uint256","internalType":"uint256"}],"outputs":[{"name":"","type":"bool","internalType":"bool"}],"stateMutability":"nonpayable"},{"type":"function","name":"transferFrom","inputs":[{"name":"from","type":"address","internalType":"address"},{"name":"to","type":"address","internalType":"address"},{"name":"value","type":"uint256","internalType":"uint256"}],"outputs":[{"name":"","type":"bool","internalType":"bool"}],"stateMutability":"nonpayable"},{"type":"function","name":"transferOwnership","inputs":[{"name":"newOwner","type":"address","internalType":"address"}],"outputs":[],"stateMutability":"nonpayable"},{"type":"function","name":"verifyAllocations","inputs":[],"outputs":[{"name":"ok","type":"bool","internalType":"bool"},{"name":"total","type":"uint256","internalType":"uint256"}],"stateMutability":"pure"},{"type":"event","name":"Approval","inputs":[{"name":"owner","type":"address","indexed":true,"internalType":"address"},{"name":"spender","type":"address","indexed":true,"internalType":"address"},{"name":"value","type":"uint256","indexed":false,"internalType":"uint256"}],"anonymous":false},{"type":"event","name":"InitialAllocation","inputs":[{"name":"fivePercentRecipient","type":"address","indexed":true,"internalType":"address"},{"name":"ninetyFivePercentRecipient","type":"address","indexed":true,"internalType":"address"},{"name":"fivePercentAmount","type":"uint256","indexed":false,"internalType":"uint256"},{"name":"ninetyFivePercentAmount","type":"uint256","indexed":false,"internalType":"uint256"}],"anonymous":false},{"type":"event","name":"OwnershipTransferred","inputs":[{"name":"previousOwner","type":"address","indexed":true,"internalType":"address"},{"name":"newOwner","type":"address","indexed":true,"internalType":"address"}],"anonymous":false},{"type":"event","name":"Transfer","inputs":[{"name":"from","type":"address","indexed":true,"internalType":"address"},{"name":"to","type":"address","indexed":true,"internalType":"address"},{"name":"value","type":"uint256","indexed":false,"internalType":"uint256"}],"anonymous":false},{"type":"error","name":"ERC20InsufficientAllowance","inputs":[{"name":"spender","type":"address","internalType":"address"},{"name":"allowance","type":"uint256","internalType":"uint256"},{"name":"needed","type":"uint256","internalType":"uint256"}]},{"type":"error","name":"ERC20InsufficientBalance","inputs":[{"name":"sender","type":"address","internalType":"address"},{"name":"balance","type":"uint256","internalType":"uint256"},{"name":"needed","type":"uint256","internalType":"uint256"}]},{"type":"error","name":"ERC20InvalidApprover","inputs":[{"name":"approver","type":"address","internalType":"address"}]},{"type":"error","name":"ERC20InvalidReceiver","inputs":[{"name":"receiver","type":"address","internalType":"address"}]},{"type":"error","name":"ERC20InvalidSender","inputs":[{"name":"sender","type":"address","internalType":"address"}]},{"type":"error","name":"ERC20InvalidSpender","inputs":[{"name":"spender","type":"address","internalType":"address"}]},{"type":"error","name":"OwnableInvalidOwner","inputs":[{"name":"owner","type":"address","internalType":"address"}]},{"type":"error","name":"OwnableUnauthorizedAccount","inputs":[{"name":"account","type":"address","internalType":"address"}]}],"bytecode":{"object":"0x60406080815234620005755762000f1890813803806200001f816200057a565b938439820191608081840312620005755780516001600160401b03939084811162000575578162000052918401620005a0565b936020918284015190828211620005755762000070918501620005a0565b946200008c60606200008487870162000612565b950162000612565b91815181811162000475576003908154906001948583811c931680156200056a575b8884101462000554578190601f93848111620004fe575b50889084831160011462000497576000926200048b575b505060001982851b1c191690851b1782555b8851928311620004755760049889548581811c911680156200046a575b8882101462000455578281116200040a575b50869184116001146200039f5793839491849260009562000393575b50501b92600019911b1c19161785555b33156200037c5760058054336001600160a01b031980831682179093556001600160a01b03957f8be0079c531659141344cd1fd0a4f28419497f9722a3daafe3b4186f6b6457e095939492879290831687600080a316908115620003445785169182156200030257620001bf3083141562000627565b620001cd3084141562000627565b600254906c3f1bdf10116048a5934000000091828101809111620002ed57600255826000526000815287600020828154019055808360008a518581527fddf252ad1be2c89b69c2b068fc378daa952ba7f163c4a11628f55a4df523b3ef948591a3600254916d04af118e314a256449edc000000092838101809111620002d857918660008c95937ff53e3430b74d41dc691268235738148d067cd6a60af72907f691b10301feb36d9795600255828252818452868220858154019055838751868152a38351928352820152a360055492831692338403620002c2576000949550166005558280a3516108a39081620006758239f35b845163118cdaa760e01b81523381880152602490fd5b60118c634e487b7160e01b6000525260246000fd5b60118a634e487b7160e01b6000525260246000fd5b8760649188519162461bcd60e51b8352820152601360248201527f496e76616c6964203935252061646472657373000000000000000000000000006044820152fd5b865162461bcd60e51b81528089018490526012602482015271496e76616c6964203525206164647265737360701b6044820152606490fd5b8351631e4fbdf760e01b8152600081870152602490fd5b01519350388062000139565b9190601f198416928a60005284886000209460005b8a89838310620003f25750505010620003d7575b50505050811b01855562000149565b01519060f884600019921b161c1916905538808080620003c8565b868601518955909701969485019488935001620003b4565b8a600052876000208380870160051c8201928a88106200044b575b0160051c019086905b8281106200043e5750506200011d565b600081550186906200042e565b9250819262000425565b60228b634e487b7160e01b6000525260246000fd5b90607f16906200010b565b634e487b7160e01b600052604160045260246000fd5b015190503880620000dc565b90879350601f19831691866000528a6000209260005b8c828210620004e75750508411620004ce575b505050811b018255620000ee565b015160001983871b60f8161c19169055388080620004c0565b8385015186558b97909501949384019301620004ad565b90915084600052886000208480850160051c8201928b86106200054a575b918991869594930160051c01915b8281106200053a575050620000c5565b600081558594508991016200052a565b925081926200051c565b634e487b7160e01b600052602260045260246000fd5b92607f1692620000ae565b600080fd5b6040519190601f01601f191682016001600160401b038111838210176200047557604052565b919080601f84011215620005755782516001600160401b0381116200047557602090620005d6601f8201601f191683016200057a565b92818452828287010111620005755760005b818110620005fe57508260009394955001015290565b8581018301518482018401528201620005e8565b51906001600160a01b03821682036200057557565b156200062f57565b60405162461bcd60e51b815260206004820152601d60248201527f43616e6e6f74206d696e7420746f20746f6b656e20636f6e74726163740000006044820152606490fdfe6080604081815260048036101561001557600080fd5b600092833560e01c908163025bc851146106c25750806306fdde03146105e7578063095ea7b31461053e57806318160ddd1461051f57806323b872dd1461042c578063313ce5671461041057806370a08231146103d9578063715018a61461037c5780638da5cb5b1461035357806395d89b4114610233578063a9059cbb14610202578063acbe533c146101d0578063ca657c06146101a7578063dd62ed3e1461015a5763f2fde38b146100c857600080fd5b34610156576020366003190112610156576100e1610732565b906100ea610763565b6001600160a01b03918216928315610140575050600554826bffffffffffffffffffffffff60a01b821617600555167f8be0079c531659141344cd1fd0a4f28419497f9722a3daafe3b4186f6b6457e08380a380f35b51631e4fbdf760e01b8152908101849052602490fd5b8280fd5b5050346101a357806003193601126101a35780602092610178610732565b61018061074d565b6001600160a01b0391821683526001865283832091168252845220549051908152f35b5080fd5b5050346101a357816003193601126101a357602090516d04af118e314a256449edc00000008152f35b8284346101ff57806003193601126101ff57508051600181526d04ee2d6d415b85acef81000000006020820152f35b80fd5b5050346101a357806003193601126101a35760209061022c610222610732565b602435903361078f565b5160018152f35b509190346101a357816003193601126101a357805190828454600181811c90808316928315610349575b60209384841081146103365783885290811561031a57506001146102c5575b505050829003601f01601f191682019267ffffffffffffffff8411838510176102b257508291826102ae9252826106e9565b0390f35b634e487b7160e01b815260418552602490fd5b8787529192508591837f8a35acfbc15ff81a39ae7d344fd709f28e8600b4aa8c65c6b64bfe7fe36bd19b5b838510610306575050505083010138808061027c565b8054888601830152930192849082016102f0565b60ff1916878501525050151560051b840101905038808061027c565b634e487b7160e01b895260228a52602489fd5b91607f169161025d565b5050346101a357816003193601126101a35760055490516001600160a01b039091168152602090f35b83346101ff57806003193601126101ff57610395610763565b600580546001600160a01b0319811690915581906001600160a01b03167f8be0079c531659141344cd1fd0a4f28419497f9722a3daafe3b4186f6b6457e08280a380f35b5050346101a35760203660031901126101a35760209181906001600160a01b03610401610732565b16815280845220549051908152f35b5050346101a357816003193601126101a3576020905160128152f35b5082346101ff5760603660031901126101ff57610447610732565b61044f61074d565b916044359360018060a01b03831680835260016020528683203384526020528683205491600019831061048b575b60208861022c89898961078f565b8683106104f35781156104dc5733156104c55750825260016020908152868320338452815291869020908590039055829061022c8761047d565b8751634a1406b160e11b8152908101849052602490fd5b875163e602df0560e01b8152908101849052602490fd5b8751637dc7a0d960e11b8152339181019182526020820193909352604081018790528291506060010390fd5b5050346101a357816003193601126101a3576020906002549051908152f35b5034610156578160031936011261015657610557610732565b6024359033156105d0576001600160a01b03169182156105b957508083602095338152600187528181208582528752205582519081527f8c5be1e5ebec7d5bd14f71427d1e84f3dd0314c0f7b2291e5b200ac8c7c3b925843392a35160018152f35b8351634a1406b160e11b8152908101859052602490fd5b835163e602df0560e01b8152808401869052602490fd5b509190346101a357816003193601126101a35780519082600354600181811c908083169283156106b8575b60209384841081146103365783885290811561031a575060011461066257505050829003601f01601f191682019267ffffffffffffffff8411838510176102b257508291826102ae9252826106e9565b600387529192508591837fc2575a0e9e593c00f959f8c92f12db2869c3395a3b0502d05e2516446f71f85b5b8385106106a4575050505083010138808061027c565b80548886018301529301928490820161068e565b91607f1691610612565b8490346101a357816003193601126101a357806c3f1bdf10116048a5934000000060209252f35b6020808252825181830181905290939260005b82811061071e57505060409293506000838284010152601f8019910116010190565b8181018601518482016040015285016106fc565b600435906001600160a01b038216820361074857565b600080fd5b602435906001600160a01b038216820361074857565b6005546001600160a01b0316330361077757565b60405163118cdaa760e01b8152336004820152602490fd5b916001600160a01b03808416928315610854571692831561083b5760009083825281602052604082205490838210610809575091604082827fddf252ad1be2c89b69c2b068fc378daa952ba7f163c4a11628f55a4df523b3ef958760209652828652038282205586815220818154019055604051908152a3565b60405163391434e360e21b81526001600160a01b03919091166004820152602481019190915260448101839052606490fd5b60405163ec442f0560e01b815260006004820152602490fd5b604051634b637e8f60e11b815260006004820152602490fdfea26469706673582212207872ec140dcd91ca41db515f3aa6a5ea685724afe3139c21dbf1fdeb03311a4964736f6c63430008140033","linkReferences":{}},"methodIdentifiers":{"FIVE_PERCENT_ALLOCATION()":"025bc851","NINETY_FIVE_PERCENT_ALLOCATION()":"ca657c06","allowance(address,address)":"dd62ed3e","approve(address,uint256)":"095ea7b3","balanceOf(address)":"70a08231","decimals()":"313ce567","name()":"06fdde03","owner()":"8da5cb5b","renounceOwnership()":"715018a6","symbol()":"95d89b41","totalSupply()":"18160ddd","transfer(address,uint256)":"a9059cbb","transferFrom(address,address,uint256)":"23b872dd","transferOwnership(address)":"f2fde38b","verifyAllocations()":"acbe533c"},"id":47}