{"abi":[{"type":"function","name":"getDailyStateReleaseBreakdown","inputs":[{"name":"s","type":"address","internalType":"contract ISWAP_V3"}],"outputs":[{"name":"dayIndex","type":"uint256","internalType":"uint256"},{"name":"total","type":"uint256","internalType":"uint256"},{"name":"normal","type":"uint256","internalType":"uint256"},{"name":"reverse","type":"uint256","internalType":"uint256"}],"stateMutability":"view"},{"type":"function","name":"getScheduleConfig","inputs":[{"name":"s","type":"address","internalType":"contract ISWAP_V3"}],"outputs":[{"name":"isSet","type":"bool","internalType":"bool"},{"name":"start","type":"uint256","internalType":"uint256"},{"name":"daysLimit","type":"uint256","internalType":"uint256"},{"name":"scheduledCount","type":"uint256","internalType":"uint256"}],"stateMutability":"view"},{"type":"function","name":"getScheduledTokens","inputs":[{"name":"s","type":"address","internalType":"contract ISWAP_V3"}],"outputs":[{"name":"list","type":"address[]","internalType":"address[]"}],"stateMutability":"view"},{"type":"function","name":"getScheduledTokensPaginated","inputs":[{"name":"s","type":"address","internalType":"contract ISWAP_V3"},{"name":"start","type":"uint256","internalType":"uint256"},{"name":"limit","type":"uint256","internalType":"uint256"}],"outputs":[{"name":"list","type":"address[]","internalType":"address[]"}],"stateMutability":"view"},{"type":"function","name":"getStateReleasedByDay","inputs":[{"name":"s","type":"address","internalType":"contract ISWAP_V3"},{"name":"dayIndex","type":"uint256","internalType":"uint256"}],"outputs":[{"name":"total","type":"uint256","internalType":"uint256"},{"name":"normal","type":"uint256","internalType":"uint256"},{"name":"reverse","type":"uint256","internalType":"uint256"}],"stateMutability":"view"},{"type":"function","name":"getTodayDashboard","inputs":[{"name":"s","type":"address","internalType":"contract ISWAP_V3"},{"name":"user","type":"address","internalType":"address"}],"outputs":[{"name":"tokenOfDay","type":"address","internalType":"address"},{"name":"active","type":"bool","internalType":"bool"},{"name":"isReverse","type":"bool","internalType":"bool"},{"name":"secondsLeft","type":"uint256","internalType":"uint256"},{"name":"appearance","type":"uint256","internalType":"uint256"},{"name":"userHasSwapped","type":"bool","internalType":"bool"},{"name":"userHasReverseSwapped","type":"bool","internalType":"bool"}],"stateMutability":"view"},{"type":"function","name":"getTodayStatus","inputs":[{"name":"s","type":"address","internalType":"contract ISWAP_V3"}],"outputs":[{"name":"ts","type":"tuple","internalType":"struct SwapLens.TodayStatus","components":[{"name":"tokenOfDay","type":"address","internalType":"address"},{"name":"activeWindow","type":"bool","internalType":"bool"},{"name":"isReverse","type":"bool","internalType":"bool"},{"name":"appearanceCount","type":"uint256","internalType":"uint256"},{"name":"secondsLeft","type":"uint256","internalType":"uint256"}]}],"stateMutability":"view"},{"type":"function","name":"getTokenScheduleInfo","inputs":[{"name":"s","type":"address","internalType":"contract ISWAP_V3"},{"name":"token","type":"address","internalType":"address"}],"outputs":[{"name":"isScheduled","type":"bool","internalType":"bool"},{"name":"index","type":"uint256","internalType":"uint256"},{"name":"appearancesToDate","type":"uint256","internalType":"uint256"},{"name":"isReverseToday","type":"bool","internalType":"bool"},{"name":"currentDay","type":"uint256","internalType":"uint256"}],"stateMutability":"view"},{"type":"function","name":"getUserSwapStatus","inputs":[{"name":"s","type":"address","internalType":"contract ISWAP_V3"},{"name":"user","type":"address","internalType":"address"},{"name":"inputToken","type":"address","internalType":"address"}],"outputs":[{"name":"hasSwapped","type":"bool","internalType":"bool"},{"name":"hasReverseSwapped","type":"bool","internalType":"bool"},{"name":"cycle","type":"uint256","internalType":"uint256"}],"stateMutability":"view"},{"type":"error","name":"InvalidContract","inputs":[]}],"bytecode":{"object":"0x6080806040523461001657611440908161001c8239f35b600080fdfe60406080815260048036101561001457600080fd5b600091823560e01c80631d0d856d14610a185780633c4d4d50146109da57806351bd7b8e146108e95780636f39eb11146107615780637acbbdae146105f25780638138e5ac1461048b5780639330edd5146102ca5780639a68c819146101bd5763f3df535f1461008357600080fd5b346101b9576020806003193601126101b55761009d610a80565b6100a681610b2d565b825163749c49f760e11b8152916001600160a01b039182169080848781855afa9384156101ab578794610178575b506100de846110f1565b95875b8581106100f9578651806100f58a82610ab1565b0390f35b8651630e2c6b6160e41b81528281018290528381602481885afa90811561016e579061013c92918b91610141575b5086610133838c611132565b91169052611123565b6100e1565b6101619150853d8711610167575b6101598183610af5565b810190610e0b565b38610127565b503d61014f565b88513d8c823e3d90fd5b9080945081813d83116101a4575b6101908183610af5565b810103126101a0575192386100d4565b8680fd5b503d610186565b85513d89823e3d90fd5b8380fd5b8280fd5b50346101b957806003193601126101b9576024916101d9610a80565b9060206101e4610a9b565b916101ee84610b2d565b845163a01986a760e01b81526001600160a01b0384811692820192909252958691829086165afa9384156102c0578594610287575b509361023160a09583610fad565b90811515928361027b575b61024581610d52565b15610274576102549150610cae565b925b80519480151586526020860152840152151560608301526080820152f35b5092610256565b6003831615935061023c565b9093506020813d82116102b8575b816102a260209383610af5565b810103126102b4575192610231610223565b8480fd5b3d9150610295565b83513d87823e3d90fd5b5090346101b957602091826003193601126101b5576102e7610a80565b6102f081610b2d565b8151635a4d30cd60e01b8152936001600160a01b0391909116919080858581865afa94851561048157869561044e575b50815163588241c960e11b81529080828681875afa9182156103d857879261041f575b5082516304dce4e160e41b81529381858781845afa9485156104155788956103e2575b5081908451968780926302c8de7960e11b82525afa9485156103d85787956103a5575b5060809650620151808351960486528501528301526060820152f35b9080955081813d83116103d1575b6103bd8183610af5565b810103126101a05760809650519338610389565b503d6103b3565b83513d89823e3d90fd5b9094508181813d831161040e575b6103fa8183610af5565b8101031261040a57519381610366565b8780fd5b503d6103f0565b84513d8a823e3d90fd5b9080925081813d8311610447575b6104378183610af5565b810103126101a057519038610343565b503d61042d565b9080955081813d831161047a575b6104668183610af5565b8101031261047657519338610320565b8580fd5b503d61045c565b82513d88823e3d90fd5b50346101b95760603660031901126101b9576104a5610a80565b906104ae610a9b565b6044356001600160a01b0380821682036101a0576104cb85610b2d565b8351634e79043360e11b81526001600160a01b03808516888301908152908416602082810191909152919691949192831691908590889081906040010381855afa9687156105e85789976105bf575b50855163183e35db60e21b81526001600160a01b039182169881019889529084166020890152959684918791829081906040015b03915afa9485156105b55760609795610580575b509061056d91610fad565b9282519415158552151590840152820152f35b61056d929195506105a690843d86116105ae575b61059e8183610af5565b810190610d3a565b949091610562565b503d610594565b84513d89823e3d90fd5b61054e97509184916105de8794853d87116105ae5761059e8183610af5565b985091509161051a565b86513d8b823e3d90fd5b5090346101b957816003193601126101b95761060c610a80565b916024359261061a81610b2d565b8151631a13e1e760e21b8152808401859052936001600160a01b0391909116929060208086602481885afa9586156105b5578796610732575b508351631ac57d5560e01b8152838101839052918183602481895afa9283156107285788936106f6575b50602482939486519788938492630d72ffff60e21b84528301525afa9384156106ec5786946106b9575b50606095508251948552840152820152f35b9080945081813d83116106e5575b6106d18183610af5565b8101031261047657606095505192386106a7565b503d6106c7565b83513d88823e3d90fd5b9180935082813d8311610721575b61070e8183610af5565b8101031261040a5790519190602461067d565b503d610704565b85513d8a823e3d90fd5b9080965081813d831161075a575b61074a8183610af5565b810103126101a057519438610653565b503d610740565b5090346101b957602091826003193601126101b55761077e610a80565b61078781610b2d565b81516367cbdec360e01b8152936001600160a01b0391909116919080858581865afa9485156104815786956108ca575b5081516346706c2960e01b81529080828681875afa9182156103d857879261089b575b50825163629f0dc960e11b81529381858781845afa94851561041557889561086c575b50819084519687809263749c49f760e11b82525afa9485156103d8578795610839575b5060809650825195151586528501528301526060820152f35b9080955081813d8311610865575b6108518183610af5565b810103126101a05760809650519338610820565b503d610847565b9094508181813d8311610894575b6108848183610af5565b8101031261040a575193816107fd565b503d61087a565b9080925081813d83116108c3575b6108b38183610af5565b810103126101a0575190386107da565b503d6108a9565b816108e29296503d87116105ae5761059e8183610af5565b93386107b7565b5082346109d75760203660031901126109d757610904610a80565b9082519260a0840184811067ffffffffffffffff8211176109c45760a09550815281845260208401828152818501908382526060860193808552610957608088019682885261095281610b2d565b610b73565b8a5288521515855215801580855260001960018c1b01928316808b52929392906109bb575b506109a7575b5083519651168652511515602086015251151590840152516060830152516080820152f35b808852808352808452808652865288610982565b9050158a61097c565b634e487b7160e01b835260418652602483fd5b80fd5b838234610a14576060366003190112610a14576100f590610a096109fc610a80565b604435906024359061115c565b905191829182610ab1565b5080fd5b838234610a145780600319360112610a145760e090610a46610a38610a80565b610a40610a9b565b906112e8565b95969193909482519760018060a01b031688521515602088015215159086015260608501526080840152151560a0830152151560c0820152f35b600435906001600160a01b0382168203610a9657565b600080fd5b602435906001600160a01b0382168203610a9657565b6020908160408183019282815285518094520193019160005b828110610ad8575050505090565b83516001600160a01b031685529381019392810192600101610aca565b90601f8019910116810190811067ffffffffffffffff821117610b1757604052565b634e487b7160e01b600052604160045260246000fd5b6001600160a01b03163b15610b3e57565b6040516303777f6960e51b8152600490fd5b91908203918211610b5d57565b634e487b7160e01b600052601160045260246000fd5b90610b7d82610e2a565b909290918215848115610be8575b50610bd857610b9a8483610fad565b9081151580610bcd575b610bae9093610c07565b6000915042811115610bc957610bc691504290610b50565b90565b5090565b506003821615610ba4565b6000935083925082915081908190565b6001600160a01b031615905038610b8b565b91908201809211610b5d57565b9060046020610c1584610cae565b6040516346706c2960e01b815290949092839182906001600160a01b03165afa908115610ca257600091610c71575b50620151809283810290808204851490151715610b5d57610c6491610bfa565b918201808311610b5d5790565b906020823d8211610c9a575b81610c8a60209383610af5565b810103126109d757505138610c44565b3d9150610c7d565b6040513d6000823e3d90fd5b610cb781610d52565b15610d34576040516346706c2960e01b815290602090829060049082906001600160a01b03165afa908115610ca257600091610d01575b50610cfd620151809142610b50565b0490565b906020823d8211610d2c575b81610d1a60209383610af5565b810103126109d7575051610cfd610cee565b3d9150610d0d565b50600090565b90816020910312610a9657518015158103610a965790565b6040516367cbdec360e01b8152906020906001600160a01b03168183600481845afa928315610ca257600093610dec575b5082610d8e57505090565b6040516346706c2960e01b815292508190839060049082905afa908115610ca257600091610dc0575b50905042101590565b82813d8311610de5575b610dd48183610af5565b810103126109d75750518038610db7565b503d610dca565b610e04919350823d84116105ae5761059e8183610af5565b9138610d83565b90816020910312610a9657516001600160a01b0381168103610a965790565b610e3381610d52565b15610fa457610e4181610cae565b6040805163629f0dc960e11b81529093916020916001600160a01b03851691908381600481865afa908115610f6057600091610f77575b50811015610f6b57855163749c49f760e11b8152908382600481865afa918215610f6057600092610f31575b508115610f2457906024849288519485938492630e2c6b6160e41b84520660048301525afa918215610f1957610ee793949550600092610efc575b505092610c07565b904210159081610ef5575090565b9050421090565b610f129250803d10610167576101598183610af5565b3880610edf565b85513d6000823e3d90fd5b5060009550859450505050565b90918482813d8311610f59575b610f488183610af5565b810103126109d75750519038610ea4565b503d610f3e565b87513d6000823e3d90fd5b50600094508493505050565b908482813d8311610f9d575b610f8d8183610af5565b810103126109d757505138610e78565b503d610f83565b50600090600090565b90610fb782610d52565b156110d25760405163a01986a760e01b81526001600160a01b039182166004820152602092918216918382602481865afa918215610ca2576000926110a3575b50811561109a576000198201918211610b5d5761101390610cae565b9181831061109a57836004916040519283809263749c49f760e11b82525afa938415610ca257600094611069575b505082156110615761105291610b50565b0460018101809111610b5d5790565b505050600090565b8181959293953d8311611093575b6110818183610af5565b810103126109d7575051913880611041565b503d611077565b50505050600090565b90918482813d83116110cb575b6110ba8183610af5565b810103126109d75750519038610ff7565b503d6110b0565b5050600090565b67ffffffffffffffff8111610b175760051b60200190565b906110fb826110d9565b6111086040519182610af5565b8281528092611119601f19916110d9565b0190602036910137565b6000198114610b5d5760010190565b80518210156111465760209160051b010190565b634e487b7160e01b600052603260045260246000fd5b9291909261116981610b2d565b6040805163749c49f760e11b815260049391926001600160a01b03929083169160209182828881875afa9182156112dd576000926112ae575b508189101561126b576111c9916111ba8a9283610bfa565b90808211611263575b50610b50565b946111d3866110f1565b9760005b8781106111e8575050505050505050565b6111f28183610bfa565b875190630e2c6b6160e41b8252848201528481602481895afa908115611258579087838d61122e9594600094611233575b509061013391611132565b6111d7565b61013392919450611250908a3d8c11610167576101598183610af5565b939091611223565b88513d6000823e3d90fd5b9050386111c3565b5050949550505080519283019183831067ffffffffffffffff84111761129957505260008152600036813790565b604190634e487b7160e01b6000525260246000fd5b90918382813d83116112d6575b6112c58183610af5565b810103126109d757505190386111a2565b503d6112bb565b86513d6000823e3d90fd5b9190916112f481610b2d565b6112fd81610b73565b9396929591949092919086158881156113f8575b506113e057604051634e79043360e11b81526001600160a01b038481166004830152898116602483015260209216908281604481855afa908115610ca2576113969284928c926000916113c3575b5060405163183e35db60e21b81526001600160a01b0398891660048201529290971660248301529092839190829081906044820190565b03915afa918215610ca2576000926113ad57505090565b610bc69250803d106105ae5761059e8183610af5565b6113da9150843d86116105ae5761059e8183610af5565b3861135f565b50955050505050506000906000908180918180918190565b6001600160a01b03161590503861131156fea26469706673582212209e9974139af4dde769f44e17bf4c881365e83165e66fd7b5e550ef53072750d864736f6c63430008140033","linkReferences":{}},"methodIdentifiers":{"getDailyStateReleaseBreakdown(address)":"9330edd5","getScheduleConfig(address)":"6f39eb11","getScheduledTokens(address)":"f3df535f","getScheduledTokensPaginated(address,uint256,uint256)":"3c4d4d50","getStateReleasedByDay(address,uint256)":"7acbbdae","getTodayDashboard(address,address)":"1d0d856d","getTodayStatus(address)":"51bd7b8e","getTokenScheduleInfo(address,address)":"9a68c819","getUserSwapStatus(address,address,address)":"8138e5ac"},"id":48}